:020000040800F2
:1000000058040020E13800085D3800085F38000817
:1000100061380008633800086538000800000000F7
:100020000000000000000000000000006738000829
:1000300069380008000000006B3800086D380008BF
:100040002139000825390008293900082D39000810
:100050003139000835390008393900083D390008C0
:100060004139000845390008493900084D39000870
:100070005139000855390008593900085D39000820
:10008000613900086539000869390008000000007E
:100090000000000000000000000000006D390008B2
:1000A0007139000875390008793900087D39000870
:1000B000F91B000885390008893900088D390008C6
:1000C0009139000895390008993900089D390008D0
:1000D000A1390008A5390008A9390008AD39000880
:1000E000B1390008B5390008B9390008000000002E
:1000F0000000000000000000000000000000000000
:1001000000000000000000000000000000000000EF
:100110000000000000000000BD390008C1390008DF
:1001200010B50400DFF8200784420AD101214FF402
:10013000006000F0B8FD00214FF4006000F0B3FD56
:10014000DDE0B4F1804F08D10121012000F0BAFDBB
:100150000021012000F0B6FDD1E0DFF8F006844276
:1001600008D10121022000F0ADFD0021022000F0A5
:10017000A9FDC4E0DFF8D806844208D1012104209B
:1001800000F0A0FD0021042000F09CFDB7E0DFF8A6
:10019000C406844208D10121082000F093FD00210B
:1001A000082000F08FFDAAE0DFF82007844208D184
:1001B0000121102000F086FD0021102000F082FDBA
:1001C0009DE0DFF80C07844208D10121202000F0D7
:1001D00079FD0021202000F075FD90E0DFF8F406A5
:1001E00084420AD101214FF4005000F05CFD00214F
:1001F0004FF4005000F057FD81E0DFF8DC06844248
:100200000AD101215FF4002000F04DFD00215FF4D0
:10021000002000F048FD72E0DFF8340784420AD184
:1002200001215FF4801000F03EFD00215FF480109A
:1002300000F039FD63E0DFF81C0784420AD1012198
:100240005FF4001000F02FFD00215FF4001000F0BB
:100250002AFD54E0DFF80007844208D10121402044
:1002600000F030FD0021402000F02CFD47E0DFF8D9
:10027000EC06844208D10121802000F023FD0021FA
:10028000802000F01FFD3AE0DFF8D40684420AD156
:1002900001214FF4807000F015FD00214FF48070B3
:1002A00000F010FD2BE0DFF8300784420AD1012175
:1002B0005FF4803000F0F7FC00215FF4803000F044
:1002C000F2FC1CE0DFF8140784420AD101215FF43C
:1002D000003000F0E8FC00215FF4003000F0E3FCA7
:1002E0000DE0DFF8FC06844209D101215FF4802093
:1002F00000F0D9FC00215FF4802000F0D4FC10BD98
:10030000002203881A00DFF84035984212D0DFF847
:10031000C43598420ED0B0F1804F0BD0DFF82C35A9
:10032000984207D0DFF82835984203D0DFF824350B
:10033000984204D14FF68F731A404B881A43DFF866
:100340008C35984208D0DFF88835984204D04FF6B3
:10035000FF431A40CB881A4302808B8883850B8821
:100360000385DFF8E43498420FD0DFF8683598420F
:100370000BD0DFF86436984207D0DFF86036984239
:1003800003D0DFF85C36984201D10B7A0386012353
:100390008382704770B4002300240022058C4FF63E
:1003A000FE7635400584058C2C0085882A00058B57
:1003B0002B004FF68F752B404FF6FC752B400D88A8
:1003C0002B434FF6FD752C400D892C434D882C4353
:1003D000DFF87454A8420FD0DFF8F854A8420BD0CD
:1003E000DFF8F455A84207D0DFF8F055A84203D053
:1003F000DFF8EC55A84213D14FF6F7752C404D8924
:100400002C434FF6FB752C408D882C434FF6FF652F
:100410002A404FF6FF552A408D892A43CD892A4329
:1004200082800383CD888586048470BC704770B455
:10043000002300240022058C4FF6EF76354005841A
:10044000058C2C0085882A00058B2B0048F6FF754B
:100450002B404FF6FF452B400D8853EA05234FF6FE
:10046000DF752C400D8954EA05144D8854EA0514B3
:10047000DFF8D453A84203D0DFF86855A84217D15B
:100480004FF67F752C404D8954EA05144FF6BF7521
:100490002C408D8854EA05144FF6FF352A404FF260
:1004A000FF752A408D8952EA8502CD8952EA85027C
:1004B00082800383CD880587048470BC704770B444
:1004C000002300240022058C4FF6FF66354005848A
:1004D000058C2C0085882A00858B2B004FF68F75A4
:1004E0002B404FF6FC752B400D882B434FF6FF55E4
:1004F0002C400D8954EA05244D8854EA0524DFF880
:100500004853A84203D0DFF8DC54A84217D14FF279
:10051000FF752C404D8954EA05244FF6FF352C40D9
:100520008D8854EA05244EF6FF752A404DF6FF7576
:100530002A408D8952EA0512CD8952EA051282803D
:100540008383CD888587048470BC704770B4002392
:1005500000240022058C4EF6FF7635400584058C7C
:100560002C0085882A00858B2B0048F6FF752B40D0
:100570004FF6FF452B400D8853EA05234DF6FF75D6
:100580002C400D8954EA05344D8854EA0534DFF8CF
:10059000B852A84203D0DFF84C54A84205D14BF61C
:1005A000FF752A408D8952EA851282808383CD8827
:1005B000A0F84050048470BC704738B504000D00AA
:1005C000DFF88402844212D0DFF8080384420ED0A0
:1005D000B4F1804F0BD0DFF87402844207D0DFF80B
:1005E0007002844203D0DFF86C02844200D1FFE73E
:1005F000288800280AD12B89AA886988200000F061
:10060000EDF8E988200000F0A4F825E02888042807
:100610000AD12B89AA886988200000F01DF9E98891
:10062000200000F09FF817E0288808280AD12B89BD
:10063000AA886988200000F051F9E988200000F0BC
:100640009BF809E02B89AA886988200000F08AF9C4
:10065000E988200000F099F831BD4FF6FF718180E4
:10066000002101800021C180002141800021017210
:1006700070470021018000214180002181800021FC
:10068000C18000210181002141810021818100215F
:10069000C1817047C9B2002904D0028852F001021A
:1006A000028004E002884FF6FE731A400280704711
:1006B000C9B2002906D0B0F8442052F40042A0F894
:1006C000442005E0B0F844205204520CA0F8442025
:1006D0007047D2B2002A03D083890B43838102E0A2
:1006E00083898B4383817047C9B2002904D0028873
:1006F00052F08002028004E002884FF67F731A40B5
:10070000028070470022038B1A004FF6F7731A40DD
:100710000A43028370470022838B1A004FF6F77357
:100720001A400A43828370470022838B1A004FF2DB
:10073000FF731A4052EA0122828370478185704715
:10074000818670470187704781877047A0F8401005
:100750007047028B4FF6F3731A400283028B0A43F1
:1007600002837047028B4FF2FF331A400283028BE1
:1007700052EA012202837047828B4FF6F3731A40CC
:100780008283828B0A4382837047828B4FF2FF33CE
:100790001A408283828B52EA012282837047808EC4
:1007A000704730B40200002000230024158A0D4059
:1007B0002B0095890D402C009BB2002B05D0A4B2D4
:1007C000002C02D00125280001E000252800C0B23D
:1007D00030BC704789B2CA4302827047F0B400252A
:1007E0000024068C4FF6FE773E400684068B3500CB
:1007F000068C34004FF60C76354052EA031635432A
:10080000114EB0420ED0334EB0420BD0B0F1804FFB
:1008100008D00E4EB04205D00D4EB04202D00D4E63
:10082000B04206D14FF6FD76344051F00106344314
:1008300005E04FF6F576344051F001063443058368
:100840000484F0BC70470000002C0140000400400C
:1008500000080040000C0040F0B4002600240025F1
:10086000078C4FF6EF7C1CEA07070784078B3E00D6
:10087000078C3C000F013D0040F6FF473E4056EA22
:10088000033656EA0226584FB8420ED0114FB842EE
:100890000BD0B0F1804F08D0544FB84205D0544F20
:1008A000B84202D0534FB84206D14FF6DF773C40F2
:1008B00055F010073C4305E04FF65F773C4051F0A0
:1008C00010073C4306830484F0BC704700100040CE
:1008D0000014004000340140004C0140F0B40026F8
:1008E00000240025078C4FF6FF6C1CEA07070784DD
:1008F000878B3E00078C3C000F023D004FF60C77C3
:100900003E4052EA03173E43374FB8420ED0354FB0
:10091000B8420BD0B0F1804F08D0344FB84205D068
:10092000334FB84202D0334FB84206D14FF6FF578B
:100930003C4055F480773C4305E04FF2FF573C4084
:1009400051F480773C4386830484F0BC70470000F8
:10095000005001400054014000180040001C0040BD
:1009600000200040F0B4002600240025078C4EF63D
:10097000FF7C1CEA07070784878B3E00078C3C003E
:100980000F033D0040F6FF473E4056EA022656EA76
:100990000336154FB8420ED0124FB8420BD0B0F10B
:1009A000804F08D0114FB84205D0114FB84202D045
:1009B000104FB84206D14DF6FF773C4055F48057B2
:1009C0003C4305E047F6FF573C4051F480573C4319
:1009D00086830484F0BC704700400140004401401D
:1009E0000048014000340140002C01400004004058
:1009F00000080040000C0040DFF83803006850F0A9
:100A00000100DFF830130860DFF82C030068DFF81E
:100A10002C130840DFF820130860DFF81803006883
:100A2000DFF81C130840DFF80C130860DFF804033C
:100A3000006830F48020DFF8FC120860DFF8F8026C
:100A4000006830F4FE00DFF8F01208605FF41F0069
:100A5000DFF8F01208607047DFF8D812096831F447
:100A60008031DFF8D0221160DFF8C812096831F454
:100A70008021DFF8C02211600100B1F5803F03D072
:100A8000B1F5802F09D011E0DFF8A812096851F400
:100A90008031DFF8A022116008E0DFF898120968C1
:100AA00051F4A021DFF88C221160FFE7704738B5C0
:100AB0000020009000240025312000F012F90500EC
:100AC0000098401C00900098B0F5A06F02D0EDB2E5
:100AD000002DF1D0312000F004F9002802D00120CF
:100AE000040001E0002004002000C0B232BD00225A
:100AF000DFF844321B681A0032F47C1251EA00031A
:100B00001A43DFF834321A607047C0B2DFF8381287
:100B1000086070470021884A12681100890889001E
:100B20000143854A116070478348006810F00C004B
:100B300070470021804A1268110031F0F001014332
:100B40007D4A1160704700217B4A1268110031F420
:100B5000E0610143784A116070470021764A1268CB
:100B6000110031F4605151EAC001734A11607047BD
:100B700030B400210022002300246F4D2D6815F0B1
:100B80000C0529000D00002D04D0042D05D0082DE2
:100B900006D026E06E4D056025E06D4D056022E033
:100BA000654D2D6815F470152A00634D2D6815F4F8
:100BB00080352B00920C921C002B04D1654D05FB57
:100BC00002F505600CE05C4D2D68AD0304D5614D68
:100BD00005FB02F5056003E05D4D05FB02F50560D0
:100BE00001E05B4D0560544D2D6815F0F0052900BE
:100BF0000909594D4D5D2C000568E54045604E4D95
:100C00002D6815F4E0652900090A534D4D5D2C004F
:100C10004568E5408560484D2D6815F4605529000C
:100C2000C90A4D4D4D5D2C004568E540C560424DFB
:100C30002D6815F440452900890B484D4D5D2C0069
:100C4000C568B5FBF4F5056130BC7047C9B2002931
:100C500005D0434A12680243414B1A6004E0404AFF
:100C6000126882433E4B1A607047C9B2002905D012
:100C70003C4A126802433B4B1A6004E0394A12684E
:100C80008243384B1A607047C9B2002905D0364AF2
:100C900012680243344B1A6004E0334A12688243FC
:100CA000314B1A607047C9B2002905D02F4A12682B
:100CB00002432E4B1A6004E02C4A126882432B4BED
:100CC0001A607047C9B2002905D0294A1268024348
:100CD000274B1A6004E0264A12688243244B1A60AC
:100CE000704710B402000023002400201100C9B294
:100CF0004909C9B20B00012B03D10E4909680C0048
:100D000008E0022B03D1114909680C0002E01949DF
:100D100009680C00D2B212F01F010B002100D9406B
:100D2000C90702D50121080001E000210800C0B276
:100D300010BC704700100240041002400000FFF891
:100D4000FFFFF6FE08100240600042422010024001
:100D500000127A0000093D00280000203800002021
:100D600014100240181002401C1002400C100240E7
:100D7000101002402410024000000000000000009B
:100D800000000008080808080808080008081212EF
:100D90001200000000000000004848247F242412B4
:100DA0007F120909083E4909093E4848493E08475B
:100DB0002527101008080472527106090909262215
:100DC000252911294608080800000000000000003D
:100DD00008040402020202020404080408081010B5
:100DE00010101008080400082A1C2A08000000003F
:100DF0000000000008083E08080000000000000095
:100E000000000000080C0400000000003E0000008C
:100E10000000000000000000000000181810101072
:100E200008080804040402021C225151494949459A
:100E300045221C080C0A080808080808083E1E215C
:100E400040404020100804027F1F204040201E2008
:100E50004040201F30282422217F20202020207F76
:100E60000101011F20404040201F380402011D23C2
:100E7000414141221C7F4020201010080804040238
:100E80001C224141221C224141221C1C2241414181
:100E9000625C4020100E00000C0C0000000C0C00E6
:100EA0000000000C0C0000000C0C08040040300C8A
:100EB0000201020C304000000000007F00007F00B3
:100EC000000000010618204020180601003E4140A5
:100ED00040300808080008081C224149555555397A
:100EE00001023C081414222241417F4141411F214B
:100EF00021211F21414141211F3C420101010101EA
:100F00000101423C1F2242424242424242221F7F92
:100F10000101011F01010101017F7F0101013F0169
:100F200001010101013C4201010179414141423C81
:100F3000414141417F4141414141411C080808086C
:100F400008080808081C1E101010101010101011AE
:100F50000E211109050303050911214101010101B8
:100F60000101010101017F41635555494941414159
:100F7000414141414143434549515161411C224155
:100F8000414141414141221C1F21414141211F0159
:100F90000101011C2241414141414951225C1F2173
:100FA000414141211F091121411C224101021C2004
:100FB0004041221C7F080808080808080808084162
:100FC0004141414141414141221C414122222222D1
:100FD0001414140808414141414949495555634198
:100FE00041222214080808142222414141221414EB
:100FF0000808080808087F40402010080402010182
:101000007F1C0404040404040404041C01020204FC
:10101000040408080810100E080808080808080842
:10102000080E08142241000000000000000000002B
:10103000000000000000007F040800000000000025
:101040000000000000003E41407E4141615E010120
:10105000011D2341414141231D0000003C4201018B
:101060000101423C4040405C6241414141625C00C0
:1010700000001C22417F0101423C1C04040E0404B8
:1010800004040404040000005E6141615E40211E0E
:101090000101013D43414141414141080800080827
:1010A0000808080808080010001810101010101286
:1010B0000C01010121110907091121410404040453
:1010C0000404040404040C000000255B4949494958
:1010D00049490000001D23414141414141000000B8
:1010E0001C2241414141221C0000001F214141219D
:1010F0001F01010000002C32212121322C20000090
:10110000003D430101010101010000003E41010ECB
:101110003040413E0004043E04040404040438004A
:101120000000212121212121312E000000414122F6
:101130002214140808000000414141494949493638
:10114000000000412214080814224100000042421D
:101150004224381008060000007F20100804020115
:101160007F18080808040604080808180808080872
:10117000080808080808080C0808081030100808B3
:10118000080C00000000040A51200000007F7F7F4F
:101190007F7F7F7F7F7F7F7F000000000000000057
:1011A00000000055494222242418100804030014AA
:1011B0000841414224381008061E1010101010106B
:1011C0001010110E000000211E12121E21000040FE
:1011D0007F01010101010101010108080808000067
:1011E000000808080810080408142214081008044D
:1011F000147F0101011F010101017F1C22415D4596
:1012000045455D41221C3C420101011F0101014293
:101210003C0000004824120912244800000000008D
:10122000007F404000000000000000001C000000A3
:1012300000003E41415D554D555541413E14001C55
:10124000080808080808081C00001C2222221C00AC
:10125000000000000008083E0808003E00001C08CE
:1012600008080808080808081C08080008080808F2
:10127000080808080000203F0101010101010100E8
:10128000000022222222225E0201007E2726242440
:10129000242424242400000008080000000000008A
:1012A0000012001C22417F0101221C70507000437B
:1012B0004549516141410000003C42011F0101428A
:1012C0003C000000091224482412090000100018F4
:1012D0001010101010120C1C224101021C20404161
:1012E000221C0000003E41010E3040413E0014002F
:1012F0000808080808080808081414222241417F39
:101300004141417F0101011F21414141211F1F2115
:1013100021211F21414141211F7F010101010101C3
:10132000010101013E2222222222222222227F7F4B
:101330000101011F01010101017F4949492A1C1CCA
:101340002A2A4949491E214040201E204040211E92
:1013500041615151494545434141414D61515149D7
:101360004545434141416111090905030509112121
:1013700041784442424242424242424141635555D1
:1013800049494141414141414141417F41414141FF
:1013900041411C2241414141414141221C7F414187
:1013A00041414141414141411F21414141211F01F1
:1013B0000101013C4201010101010101423C7F08A0
:1013C000080808080808080808414142222424188F
:1013D00010080403081C2A49494949492A1C0841A4
:1013E000222214080808142222412121212121212E
:1013F0002121213F404141414141417E4040404007
:10140000414141494949494949497F414141494946
:10141000494949497F40030202021E2242424222B8
:101420001E41414141474951515149470101010183
:101430001F21414141211F0F302040407C4040206E
:10144000300F11294545454745454529117C424105
:101450004141427C484442410000003E41407E41BF
:1014600041615E1C02011D2341414141231D0000D9
:10147000001F21211F2121211F0000003F01010128
:10148000010101010000003C2222222121217F00D4
:1014900000001C22417F0101423C00000049492A12
:1014A0001C2A4949490000003E41403C4040413E21
:1014B00000000021213129252523210000002D21B4
:1014C0003129252523210000006111090709112177
:1014D0004100000078444242424242410000004143
:1014E000635549414141410000004141417F414133
:1014F00041410000001C2241414141221C000000EA
:101500007F414141414141410000001D23414123B0
:101510001D01010000003C4201010101423C0000AC
:10152000007F08080808080808000000414142241C
:1015300038100806000000081C2A49492A1C080027
:10154000000041221408081422410000002121213A
:101550002121213E40000000414141417E40404068
:10156000000000414149494949497F00000041418B
:10157000494949497F400000000302023E4242427D
:101580003E0000004141414F5151514F00000001C8
:1015900001013F4141413F0000001E21407C40408D
:1015A000211E000000112945474745291100000070
:1015B0007E4141417E484442EEEEEEEEEE00EEEE1C
:1015C000EEEEEE00EEEEEEEEEE00EEEEEEEEEE0005
:1015D000EEEEEEEEEE00EEEEEEEEEE00EEEEEEEE07
:1015E000EE00EEEEEEEEEE00EEEEEEEEEE00EEEEE5
:1015F000EEEEEE00EEEEEEEEEE00EEEEEEEEEE00D5
:10160000EEEEEEEEEE00EEEEEEEEEE00EEEEEEEED6
:10161000EE00EEEEEEEEEE00EEEEEEEEEE00EEEEB4
:10162000EEEEEE00EEEEEEEEEE00EEEEEEEEEE00A4
:10163000EEEEEEEEEE00EEEEEEEEEE00EEEEEEEEA6
:10164000EE00EEEEEEEEEE00EEEEEEEEEE00EEEE84
:10165000EEEEEE00EEEEEEEEEE00EEEEEEEEEE0074
:10166000EEEEEEEEEE00EEEEEEEEEE00EEEEEEEE76
:10167000EE00EEEEEEEEEE0000000000000044444E
:1016800044004400AAAA00000000AAFFFFAA00002C
:101690004466EECC4400AA224488AA00669966AA51
:1016A000DD00224400000000224444442200442281
:1016B0002222440000AA44AA00000044EE44000094
:1016C0000000004488000000EE0000000000000060
:1016D000440000224488000044AAAAAA440044CC42
:1016E0004444EE00CC224488EE00EE226622EE0056
:1016F000AAAAEE222200EE88EE22EE00EE88EEAAE2
:10170000EE00EE2222222200EEAAEEAAEE00EEAABF
:10171000EE222200000044004400000044004488FF
:1017200022448844220000EE00EE00008844224457
:101730008800EE226600440044EEEE88440044AA8D
:10174000EEAAAA00CCAACCAACC006688888866003B
:10175000CCAAAAAACC00EE88EE88EE00EE88EE882D
:1017600088006688EEAA6600AAAAEEAAAA00EE443D
:101770004444EE00222222AA4400AAAACCAAAA002B
:1017800088888888EE00AAEEEEAAAA00AAEEEEEEFD
:10179000AA0044AAAAAA4400CCAACC88880044AAD9
:1017A000AAEE6600CCAAEECCAA0066884422CC0041
:1017B000EE4444444400AAAAAAAA6600AAAAAA44DB
:1017C0004400AAAAEEEEAA00AAAA44AAAA00AAAABB
:1017D00044444400EE224488EE00664444446600DB
:1017E00000884422000066222222660044AA0000EB
:1017F00000000000000000FF88440000000000001E
:1018000066AAEE008888CCAACC0000006688660034
:10181000222266AA660000EEEE8866002244EE44AC
:1018200044000066AA66EE008888CCAAAA0044009C
:10183000444444004400444488000088AACCAA00E0
:1018400000CC4444EE000000EEEEAA000000CCAA5A
:10185000AA000044AAAA44000000CCAACC88000038
:1018600066AA662200CCAA8888000066CC22CC003A
:101870000044EE4444000000AAAA66000000AAEE5C
:1018800044000000AAEEEE000000AA44AA000000F6
:10189000AAEE22CC00EE66CCEE002244CC4422001C
:1018A00044440044440088446644880055AA00002B
:1018B000000044AAAAEE0000EEEEEEEEEE00EEEE20
:1018C000EEEEEE00EEEEEEEEEE00EEEEEEEEEE0002
:1018D000EEEEEEEEEE00EEEEEEEEEE00EEEEEEEE04
:1018E000EE00EEEEEEEEEE00EEEEEEEEEE00EEEEE2
:1018F000EEEEEE00EEEEEEEEEE00EEEEEEEEEE00D2
:10190000EEEEEEEEEE00EEEEEEEEEE00EEEEEEEED3
:10191000EE00EEEEEEEEEE00EEEEEEEEEE00EEEEB1
:10192000EEEEEE00EEEEEEEEEE00EEEEEEEEEE00A1
:10193000EEEEEEEEEE00EEEEEEEEEE00EEEEEEEEA3
:10194000EE00EEEEEEEEEE00EEEEEEEEEE00EEEE81
:10195000EEEEEE00EEEEEEEEEE00EEEEEEEEEE0071
:10196000EEEEEEEEEE00EEEEEEEEEE00EEEEEEEE73
:10197000EE00EEEEEEEEEE00EEEEEEEEEE00EEEE51
:10198000EEEEEE00EEEEEEEEEE00EEEEEEEEEE0041
:10199000EEEEEEEEEE00EEEEEEEEEE00EEEEEEEE43
:1019A000EE00EEEEEEEEEE00EEEEEEEEEE00EEEE21
:1019B000EEEEEE00EEEEEEEEEE00EEEEEEEEEE0011
:1019C000EEEEEEEEEE00EEEEEEEEEE000066CC6633
:1019D000000000CC66CC0000882288228822AA550C
:1019E000AA55AA55CC4488CC0000444444444444FD
:1019F0003322AA662200AAAAAACC880000FFAAAABB
:101A0000BB00EE88EE88EE000000CCCC4444666655
:101A1000EEEE66666666666666660000EEEE666612
:101A20006666EEEE00006666EE0000004444CCCC34
:101A300000000000CC444444444477000000444487
:101A4000FF0000000000FF44444444447744444401
:101A50000000FF0000004444FF44444444447777BE
:101A600044446666776666666666777700000000BF
:101A7000777766666666FFFF00000000FFFF666618
:101A80006666777766660000FFFF00006666FFFF08
:101A900066664444FFFF00006666FF000000000029
:101AA000FFFF44440000FF6666666666770000003C
:101AB000444477770000000077774444000077665D
:101AC00066666666FF6666664444FFFF44444444B7
:101AD000CC000000000077444444FFFFFFFFFFFFFD
:101AE000000000FFFFFFCCCCCCCCCCCC3333333365
:101AF0003333FFFFFF000000EEEEEEEEEE00EEEE01
:101B0000EEEEEE00EEEEEEEEEE00EEEEEEEEEE00BF
:101B1000EEEEEEEEEE00EEEEEEEEEE00EEEEEEEEC1
:101B2000EE00EEEEEEEEEE00EEEEEEEEEE00EEEE9F
:101B3000EEEEEE00EEEEEEEEEE00EEEEEEEEEE008F
:101B4000EEEEEEEEEE00EEEEEEEEEE00EEEEEEEE91
:101B5000EE00EEEEEEEEEE00EEEEEEEEEE00EEEE6F
:101B6000EEEEEE00EEEEEEEEEE00EEEEEEEEEE005F
:101B7000EEEEEEEEEE00EEEEEEEEEE00EEEEEEEE61
:101B8000EE00EEEEEEEEEE00EEEEEEEEEE00EEEE3F
:101B9000EEEEEE00EEEEEEEEEE00EEEEEEEEEE002F
:101BA000EEEEEEEEEE00EEEEEEEEEE00000066661D
:101BB0000000EEEEEEEEEE00012110F01F0291406B
:101BC000DFF8302440B2430942F82310704710B4C4
:101BD00040B2002809D50A01DFF81C3440B210F0E9
:101BE0000F04E31803F8042C04E00A01DFF80C34B6
:101BF00040B2C25410BC704710B5DFF8040404882A
:101C000002215FF08040FEF7CCFD012836D15FF065
:101C10008040FEF7C4FDDFF8EC130880DFF8E40332
:101C20000088201ADFF8E0130880DFF8DC03008862
:101C3000DFF8CC130880DFF8CC03008800F0B8F997
:101C4000DFF8C813088002215FF08040FEF7C2FD74
:101C50000020DFF8BC130870DFF8A803008848F6FE
:101C6000A141884204DB0120DFF8A813087003E0DB
:101C70000020DFF8A013087000F00FF804215FF0D7
:101C80008040FEF78EFD012806D104215FF08040E0
:101C9000FEF7A0FD00F001F810BD10B5DFF87403E9
:101CA0000078012809D1DFF87003006850F0800047
:101CB000D949086000F07DFA84E0D5480078002812
:101CC00006D002282BD015D3042866D03CD379E067
:101CD000CC4800884000642190FBF1F4210089B2D7
:101CE0005FF08040FEF72EFDC9480078401CC849CF
:101CF000087067E0C348008806214843642190FBD0
:101D0000F1F4210089B25FF08040FEF71BFDC0486E
:101D10000078401CBE49087000F04FFA52E0B94804
:101D2000008832214843642190FBF1F4210089B2FC
:101D30005FF08040FEF706FDB5480078401CB449CE
:101D4000087000F016FA3DE0AE4800884121484393
:101D5000642190FBF1F4210089B25FF08040FEF72E
:101D6000F1FCAB480078401CA949087000F019FA52
:101D700000F040FAA9480088C0B200F0D3F9A848A2
:101D80000078002808D0A5480088002804D100F079
:101D900061FB0020A249087014E09A4800886E2177
:101DA0004843642190FBF1F4210089B25FF0804048
:101DB000FEF7C8FC96480078401C9549087000F072
:101DC000F8F9FFE710BD80B500F088F800F001F8E1
:101DD00001BD00B58BB001210120FEF755FF0120A8
:101DE000ADF8000003208DF8020004208DF80300F8
:101DF00069468C4800F0DCFC5FF08040FEF790F90B
:101E000004A8FEF72AFC4FF6FF70ADF814008648D0
:101E100000688649B0FBF1F0401EADF810000020CC
:101E2000ADF816000020ADF8120004A95FF0804064
:101E3000FEF766FA01215FF08040FEF755FC0020B6
:101E4000ADF804000220ADF806000120ADF808004E
:101E50000020ADF80A000220ADF80C0001A95FF0E7
:101E60008040FEF7AAFB07A8FEF703FC6020ADF850
:101E70001C000020ADF81E004FF44870ADF82200A1
:101E80000020ADF8240007A95FF08040FEF7CFFAEC
:101E9000012202215FF08040FEF71BFC03211C2081
:101EA000FFF795FE1C20FFF787FE012204215FF05B
:101EB0008040FEF70EFC05211C20FFF788FE1C2049
:101EC000FFF77AFE00215FF08040FEF7F1FB012171
:101ED0005FF08040FEF7DEFB0BB000BD00B589B0BF
:101EE00001210420FEF7D0FE01210120FEF7BDFEF6
:101EF0004020ADF8000003208DF8020018208DF876
:101F0000030069464A4800F053FC4A48FEF708F9C6
:101F100001A8FEF7A2FB49F64040ADF80800424890
:101F200000684549B0FBF1F0401EADF80400002008
:101F3000ADF80A000020ADF8060001A93D48FEF703
:101F4000DFF901213B48FEF7CFFB04A8FEF791FB28
:101F50006020ADF810000120ADF8120044F62060BA
:101F6000ADF816000020ADF8180004A93148FEF7BE
:101F700011FA08212F48FEF7C5FB01212D48FEF775
:101F800097FB01212B48FEF785FB09B000BD10B57A
:101F90000400210089B22748FEF7D0FBA4B202203A
:101FA00094FBF0F0010089B22248FEF7C9FB10BD96
:101FB00001000020214A1278521C204B1A701F4A3F
:101FC0001278202A02DB00221C4B1A701C4A1B4B81
:101FD0001B7822F813100022D2B2202A06DA184BFE
:101FE000D2B233F812301818521CF5E7400980B20B
:101FF0007047000000E100E018ED00E000E400E0C0
:10200000240000404C0B00204E0B00204A0B002007
:10201000540B0020520000200C080140500B0020FF
:10202000550B0020000801403C00002000366E01E6
:10203000000C014000080040801A0600560B0020EA
:10204000580A002080B500F003F800F045F801BD03
:1020500000B587B001214FF48050FEF706FE012144
:102060000520FEF702FE8020ADF8000003208DF869
:10207000020018208DF803006946524800F098FBD2
:102080000020ADF804004FF48270ADF80600002087
:10209000ADF808000020ADF80A000120ADF80C00F2
:1020A0004FF40070ADF80E002020ADF810000720AE
:1020B000ADF814000020ADF8120001A9424800F06C
:1020C0005BFC01220221404800F084FC01213E48D3
:1020D00000F072FC07B000BD00B58BB001210120FB
:1020E000FEF7B4FD394800F08DFC394800903948BE
:1020F0000190102002902020039000200490802066
:1021000005900020069000200790002008904FF4D2
:102110004050099000200A9069462C4800F0F7FCD6
:102120000BB000BD38B504002B48E4B2205C002899
:1021300007D02948E4B2205C451E2800C0B200F058
:1021400001F831BD2DE9F0410400E4B2182C0EDA9B
:10215000E4B2A4B26501202620480068ADB22F1871
:10216000DFF8708032003900404600F021FDBDE804
:10217000F08180B50021154800F0E8FC15481849A9
:1021800008602020174908604FF4006000F0ECFC64
:1021900040210D4800F029FC01210C4800F0D6FC3C
:1021A00001BD80B50021094800F0D0FC00F005F821
:1021B00001BDFF20064908807047002004490880BF
:1021C000704700000008014000300140300002402C
:1021D0000C300140180B00200000002020000020DF
:1021E0003C0002403400024080B500F068F800F086
:1021F0002BF801BD10B56A480088401C684908806A
:1022000067480088202802DB002065490880644870
:102210000088644909780C18E4B2202C00DB203CCB
:102220006148E4B230F8140000F0A9F85F48E4B265
:1022300030F8140000F0ABF85B48E4B230F814104A
:10224000002000F0F1FC10BD70B5594C594D002034
:102250000600F6B2202E31DAF6B21C2E1BDAF6B2E8
:10226000300000F0F3FC210000F000FD290000F038
:1022700069FD00F0A9FD4C49F6B221F8160040F2C4
:1022800092404949F6B231F81610401A4749F6B261
:1022900021F8160010E040F29E204349F6B221F8E2
:1022A000160040F292404049F6B231F81610401A3A
:1022B0003E49F6B221F81600761CCAE770BD00B59B
:1022C00089B001210220FEF7DFFC01210120FEF789
:1022D000CCFC0320ADF8000003208DF8020018208C
:1022E0008DF803006946344800F062FA3348FDF780
:1022F00017FF05A8FEF7B1F93148006844F62061E0
:10230000B0FBF1F0ADF818000020ADF8140000208B
:10231000ADF81A000020ADF8160005A92748FDF712
:10232000EFFF01A8FEF7A5F96020ADF80400012039
:10233000ADF806004FF4FA70ADF80A000020ADF8D1
:102340000C0001A91D48FEF7BAF84FF47A70ADF8F9
:102350000A0001A91948FEF7F9F808211748FEF705
:10236000DAF908211548FEF7DFF901211348FEF7D5
:10237000BBF901211148FEF78DF909B000BD10B578
:102380000400210089B20D48FEF7DEF910BD10B53A
:102390000400210089B20948FEF7D8F910BD0000F9
:1023A000500B002053000020980A0020D80A00207B
:1023B000D723C2C000802744000C01400004004025
:1023C0003C00002070B4020092B2FF2A1CDC92B2E2
:1023D000FF2A19DC89B292B2082392FBF3F313EBC4
:1023E0004113012480B2082590FBF5F606FB150683
:1023F000D6F10705AC40DFF874532D685D5D2543C9
:10240000DFF8686336689D5570BC704770B4020091
:1024100092B2FF2A1CDC92B2FF2A19DC89B292B276
:10242000082392FBF3F313EB4113012480B2082538
:1024300090FBF5F606FB1506D6F10705AC40DFF874
:102440002C532D685D5DA543DFF8206336689D55EC
:1024500070BC7047DFF814030068DFF814130968D4
:10246000C24A1160C24908600121C24A1170704716
:1024700070B54FF440740025BC4806682A0021005E
:10248000300000F0C3FC0020BB4908800020BB499D
:10249000088070BD2DE9F84F05000E001700984622
:1024A0000A9C4046C0B200F071F981465FF0000A14
:1024B00095F800B05FFA8BFBBBF1000F20D05FFAFC
:1024C0008AFABAF1320F1BDA2000C0B200904346FC
:1024D000DBB23A0092B2B6B25FFA8AFA1FFA89F911
:1024E00009FB0A60010089B25846C0B200F01AF830
:1024F0001AF1010A5FFA8AFA1AF805008346D9E749
:10250000B6B25FFA8AFA1FFA89F909FB0A609A499A
:1025100008809A4807805FFA8AFA09FB0AF080B2BD
:10252000BDE8F28F2DE9F04105000E001700984636
:10253000069C5FFA88F8404606280FD0082802D08B
:102540000C2816D01FE02300DBB23A0092B2310013
:1025500089B22800C0B200F018F814E02300DBB202
:102560003A0092B2310089B22800C0B200F06EF891
:1025700009E02300DBB23A0092B2310089B22800B0
:10258000C0B200F0B0F8BDE8F0812DE9F047814617
:102590000C0015001E005FFA89F9B9F1200F07DB66
:1025A0005FFA89F9B9F17F0F02DAB9F1200908E081
:1025B0005FFA89F9B9F1C00F02DBB9F1610900E0F6
:1025C00042E000200700BFB2062F3DDA002080461F
:1025D0001FFA88F8B8F1080F34DA69485FFA89F908
:1025E000052101FB0900BFB2385C012111FA08F195
:1025F00011EA000ABFB2052F01D100208246B007C0
:1026000009D55FFA8AFABAF1000F02D0002082469B
:1026100001E0012082465FFA8AFABAF1000F07D082
:1026200018EB050189B2381980B2FFF7CBFE06E03E
:1026300018EB050189B2381980B2FFF7E7FE18F1EF
:102640000108C5E77F1CBEE7BDE8F0872DE9F0472C
:1026500004000D0016001F00002080461FFA88F8B5
:10266000B8F1040F3DDA002081461FFA89F9B9F16B
:10267000060F33DA4348E4B2062101FB04001FFAD7
:1026800089F919F800000121D8F10302914011EAFB
:10269000000AB80709D55FFA8AFABAF1000F02D02A
:1026A0000020824601E0012082465FFA8AFABAF1F0
:1026B000000F08D019EB060189B218EB050080B2B3
:1026C000FFF780FE07E019EB060189B218EB050061
:1026D00080B2FFF79BFE19F10109C6E718F1010866
:1026E000BCE7BDE8F0872DE9F84381460C001500F2
:1026F0001E005FFA89F9B9F1200F06DB5FFA89F94C
:10270000B9F1810F01DAB9F1200900200700BFB249
:10271000072F28DA002080461FFA88F8B8F10B0F3F
:102720001FDA19485FFA89F90B2101FB09001FFA2A
:1027300088F818F800000121B940084207D018EBCA
:10274000050189B2381980B2FFF73CFE06E018EBAC
:10275000050189B2381980B2FFF758FE18F1010857
:10276000DAE77F1CD3E7BDE8F183000024000020F6
:1027700020000020520B0020440B0020460B0020BC
:102780004C2F0008B8150008780D00080100C9B2E8
:102790000800062804D0082804D00C2804D005E03E
:1027A000042004E0062002E0082000E00520704735
:1027B000F0B500270022002300240025002691F810
:1027C00003C01CF00F0C674691F803C05FEACC6CA5
:1027D00003D591F802C05CEA070791F800C05FEAF0
:1027E0000C6C3AD0D0F800C065465FF0000C634630
:1027F000082B31D25FF0010C1CFA03FC6446B1F8DF
:1028000000C014EA0C0C6246A24223D15FEA830C9A
:1028100064465FF00F0C1CFA04FC6646B54317FAD9
:1028200004FC5CEA050591F803C0BCF1280F06D151
:102830005FF0010C1CFA03FCC0F814C00AE091F828
:1028400003C0BCF1480F05D15FF0010C1CFA03FC7A
:10285000C0F810C05B1CCBE70560B1F800C0BCF14C
:10286000FF0F3FDDD0F804C065465FF0000C634603
:10287000082B36D25FF0010C13F1080E1CFA0EFC87
:102880006446B1F800C014EA0C0C6246A24226D19C
:102890005FEA830C64465FF00F0C1CFA04FC66468A
:1028A000B54317FA04FC5CEA050591F803C0BCF1D6
:1028B000280F07D15FF0010C13F1080E1CFA0EFC73
:1028C000C0F814C091F803C0BCF1480F07D15FF005
:1028D000010C13F1080E1CFA0EFCC0F810C05B1CB2
:1028E000C6E74560F0BDF0B40022002300250024B7
:1028F000002803D51E4E3668350002E01D4E3668AE
:102900003500C0F30346340086B2320010F440169E
:10291000B6F5401F08D135F07065164E366836F0B2
:102920007066144F3E6010E0C60206D50326A6402E
:1029300033009D4355F0706507E0460DF6B2360151
:1029400012FA06F6B54355F07065C9B2002905D0F4
:10295000460DF6B2360112FA06F63543002802D5C6
:10296000034E356001E0034E3560F0BC7047000057
:102970001C0001400400014010B4002203881A002A
:1029800012F441520B884C8823438C882343CC8813
:1029900023430C8923434C8923438C892343CC89CB
:1029A00023431A430280838B4FF2FF7423408383B7
:1029B0000B8A038210BC7047C9B2002904D0028878
:1029C00052F04002028004E002884FF6BF731A40C2
:1029D00002807047D2B2002A03D083880B438380E1
:1029E00002E083888B438380704710B40022012368
:1029F00011F00F04A3401A0092B2D343038110BC1C
:102A00007047000001684FF6FE721140016000211E
:102A1000016000214160002181600021C1605649B0
:102A2000884206D15549096851F00F01534A116097
:102A30006CE05349884206D15049096851F0F001D1
:102A40004E4A116062E04F49884206D14B490968FD
:102A500051F47061494A116058E04B49884206D1EF
:102A60004649096851F47041444A11604EE04749B3
:102A7000884206D14149096851F470213F4A1160EA
:102A800044E04349884206D13C49096851F4700149
:102A90003A4A11603AE03F49884206D1374909680D
:102AA00051F07061354A116030E03B49884206D1EF
:102AB0003A49096851F00F01384A116026E0384957
:102AC000884206D13549096851F0F001334A116056
:102AD0001CE03449884206D13049096851F47061DC
:102AE0002E4A116012E03049884206D12B4909680C
:102AF00051F47041294A116008E02C49884205D1FF
:102B00002649096851F47021244A1160704710B4B5
:102B1000002203681A006FF30E128B680C6A2343BD
:102B20000C6923434C6923438C692343CC692343B9
:102B30004C6A23438C6A23431A430260CB68436088
:102B40000B6883604B68C36010BC7047C9B2002932
:102B500004D0026852F00102026004E002684FF6FD
:102B6000FE731A4002607047C10002D50B4908602D
:102B700001E002490860704708000240040002407A
:102B80001C00024030000240440002405800024055
:102B90006C0002408000024008040240040402402D
:102BA0001C04024030040240440402405804024025
:102BB00062B38B0708D0521E11F8013B00F8013BAD
:102BC00000F024808B07F6D1830740F0208000BFFF
:102BD000103A07D330B4B1E83810103AA0E83810F2
:102BE000F9D230BC530724BFB1E80810A0E80810A0
:102BF00044BF51F8043B40F8043BD20724BF31F8EE
:102C0000022B20F8022B44BF0B7803707047083A60
:102C100007D3B1E80810083A40F8043B40F804CB69
:102C2000F7D25307E4E7000081B000220092064A81
:102C30000092009A10F108039A18009289B2009A43
:102C4000116001B07047000000740040002800BF10
:102C50000AD0B0FA80F18840D1F19D01C905020681
:102C600072F1004241EB102070470000FF2212EA8F
:102C7000D05C1DBF12EAD153944593422BE09C4493
:102C8000D30780EA01021A4043EA002043EA012107
:102C9000A1FB0030410038BF40007CF17F010BDB1D
:102CA000FE294ADA5B0842EAC15153EA006373F134
:102CB000004C51EB10207047D1F1080CDCF12001E1
:102CC0002FDB5B0810FA01F10B4373F1004120FA8E
:102CD0000CF05041704794451CBF02EAD153934217
:102CE00080EA010202F000421DD0400019D04900E4
:102CF00017D05BB9634514D00902B1FA81F399404A
:102D0000BCEB030CC00140F00040C1E70002B0FA88
:102D100080FC10FA0CF0B3EB0C0CC90141F000413F
:102D2000B6E71000704740000AD0490008D010F103
:102D3000807F94BF11F1807F02E042F0FF40704736
:102D4000D043704790EA010F44BF81F0004100F08A
:102D500091B800BF421A3CBF801A89184FF0004C4E
:102D6000C0F3C752FF2A24D0C1F3C75313B3D21AFA
:102D7000D2F1190327DD4CEA01214CFA03F321EAD1
:102D80000303D140C20D4CEA0020401834BF20EAB2
:102D90000C004CEA5000D20553EA006373EB0C0CB4
:102DA00052EB1020420012F1807F38BF7047C00DF7
:102DB000C0057047490212BF9A4200EB5120F8E764
:102DC000D2F11703D9D570474100090E7F3915D4C8
:102DD000D1F11F0114D4400007D2C00140F00040DF
:102DE000C84048BF6FF000407047C00140F000404D
:102DF000C8404CBF4FF00040404270470020704731
:102E000000424FF0004058BFC043704762F30F22AA
:102E100062F31F42401810F0030308D0C91A1FD3F1
:102E2000DB0748BF00F8012D28BF20F8022D130052
:102E300030B414461546103928BF20E93C00FAD8B2
:102E4000490728BF20E90C0048BF40F8042D89003D
:102E500028BF20F8022D48BF00F8012D30BC704774
:102E6000C91818BF00F8012DCB0728BF00F8012DA5
:102E700070470000431A4FF000423EBF5340C01A53
:102E8000C91800BFD3095FEAD05C13EB400F34BF11
:102E9000B3EB410F40E07CEBD1530CD342EA01216C
:102EA00022D8D1EB402009D3400A28BF5FEA500165
:102EB00040EBCC507047401A15D04002B0FA80F277
:102EC000521C9040400A4FEA3C23B3EB026384BF9C
:102ED00000EB730007E040F400001A16DB07C2F1B4
:102EE0000102D04018437047182BFCDC31FA03F282
:102EF00002FA03F3591A38BF42F00102D2EB402024
:102F00003CBF4000ACF1010C5FEACC5CC20572F141
:102F100000414CEB5020704713EB400F0FD24B0099
:102F200009D0ACEBD153022B03DB4902172BDDDDBB
:102F300070479143401A4300D5D10020704713EBEE
:102F4000410FD0D36FF00000704700000000000078
:102F50000000002F00000007000700147F147F14FA
:102F6000242A7F2A1223130864623649552250000E
:102F700005030000001C2241000041221C0014082F
:102F80003E081408083E08080000503000080808F1
:102F90000808006060000020100804023E51494506
:102FA0003E00427F400042615149462141454B313C
:102FB0001814127F1027454545393C4A49493001CC
:102FC000710905033649494936064949291E003623
:102FD0003600000056360000081422410014141474
:102FE00014140041221408020151090632495951B2
:102FF0003E7E1111117E7F494949363E41414122B1
:103000007F4141221C7F494949417F090909013E0D
:103010004149497A7F0808087F00417F41002040EC
:10302000413F017F081422417F404040407F020C15
:10303000027F7F0408107F3E4141413E7F0909091C
:10304000063E4151215E7F091929464649494931C9
:1030500001017F01013F4040403F1F2040201F3FB2
:103060004038403F63140814630708700807615133
:10307000494543007F4141000204081020004141BE
:103080007F0004020102044040404040000102046D
:103090000020545454787F484444383844444420F1
:1030A000384444487F3854545418087E0901020CAF
:1030B0005252523E7F0804047800447D4000204074
:1030C000443D007F1028440000417F40007C0418EC
:1030D00004787C0804047838444444387C1414147C
:1030E00008081414187C7C0804040848545454201C
:1030F000043F4440203C4040207C1C2040201C3C9D
:103100004030403C44281028440C5050503C44640B
:10311000544C44080836414100007F0000414136CC
:10312000080802010202017E1111117E7F494949FE
:10313000337F494949367F01010103E0514F41FF87
:103140007F4949494977087F087749494949367F86
:103150001008047F7C2112097C7F08142241204141
:103160003F017F7F020C027F7F0808087F3E4141BC
:10317000413E7F0101017F7F090909063E4141412E
:103180002201017F0101274848483F1C227F221C61
:1031900063140814637F404040FF070808087F7FDE
:1031A000407F407F7F407F40FF017F4848307F481D
:1031B00030007F7F48483000224149493E7F083E29
:1031C000413E462919097F20545454783C4A4A49C3
:1031D000317C545428007C0404040CE0544C44FC1E
:1031E00038545454086C107C106C44445454287C5B
:1031F0002010087C78422412787C10284400204457
:103200003C047C7C0810087C7C1010107C38444402
:1032100044387C0404047C7C14141408384444446A
:103220004404047C04040C5050503C18247E2418A0
:1032300044281028447C404040FC0C1010107C7C3A
:10324000407C407C7C407C40FC047C5050207C5086
:1032500020007C7C5050200028445454387C103886
:103260004438085434147C000609090610207F01F4
:10327000011D151200007C54540000047C047C44A1
:10328000FE2020201E00000010B440B2002808D507
:103290000A01804B40B210F00F04E31803F8042C2D
:1032A00003E00A017C4B40B2C25410BC704710B519
:1032B0000400601EB0F1807F01D301200EE0601E8B
:1032C000764908600F215FF0FF30FFF7DDFF002037
:1032D00073490860072073490860002010BD80B55D
:1032E00000F05DF8704800684FF47A71B0FBF1F0BF
:1032F000FFF7DDFF642000F0F5F8FEF775FFFEF73D
:1033000062FDFEF79FFEFEF754FFFFF7B1F800F0F5
:1033100003F800F019F8FAE780B5644800686449DA
:10332000096888420FD26248006864305F490860CB
:1033300060486149098890FBF1F060490880604865
:103340000088FEF724FE01BD80B55E48006858493C
:103350000968884222D25C48007800281ED154486F
:103360000068323057490860FFF782F8002000906B
:103370000823002200215548FFF78CF80020009018
:103380000823082200215248FFF784F851480078AA
:10339000401C5049087001204B49087001BD80B5A0
:1033A00000F025F801210420FDF75FFC0121082031
:1033B000FDF75BFC01211020FDF757FC0121464879
:1033C000FFF791FA4FF40050ADF8000001208DF89E
:1033D000020010208DF8030069464048FFF7E8F925
:1033E0003F48006850F400503D49086001BD10B5E9
:1033F00082B0FDF701FB5FF48030FDF72DFBFDF798
:1034000056FB0400E4B2012C27D1102000F08CF808
:10341000022000F07DF80020FDF78BFB0020FDF777
:103420009CFB4FF48060FDF78EFB5FF480215FF41E
:103430008030FDF75CFB0120FDF767FB3920FDF7CD
:1034400050FC0028FAD00220FDF764FBFDF76CFB6E
:103450000828FBD100F0A4F81AE000F0A1F801213F
:103460001020FDF702FC4FF40050ADF800000120E1
:103470008DF8020010208DF8030069461748FFF709
:1034800097F91748006830F4005015490860FEE7C6
:1034900013BD000018ED00E000E400E014E000E0DF
:1034A00018E000E010E000E03C000020380B0020B5
:1034B000400B002000366E014A0B0020480B002014
:1034C000500000203C0B0020550B0020C0380008A5
:1034D000D0380008530B00200002300000100140DB
:1034E0000C10014010B586B0040001A8FDF740FBA8
:1034F000029842F21071B0FBF1F060430090009826
:10350000002803D00098401E0090F8E706B010BDD8
:103510000021DFF834201268110011F03801014356
:10352000DFF8242011607047DFF81C10096831F0C3
:103530001001DFF814201160DFF80C100968014356
:10354000DFF80420116070470020024080B5754804
:10355000006850F0010073490860734800687349BF
:103560000840714908606F480068714908406D491A
:1035700008606C48006830F480206A4908606A4836
:10358000006830F4FE00684908605FF41F00694974
:10359000086000F053F85FF000606749086001BD03
:1035A00010B40020002100225F4B1B6813F00C03B5
:1035B00018000300002B04D0042B06D0082B08D0E1
:1035C0002BE05E4B5E4C23602AE05C4B5C4C23603E
:1035D00026E0554B1B6813F470131900524B1B68FF
:1035E00013F480331A00890C891C002A05D1554B2D
:1035F00003FB01F3524C23600EE04B4B1B689B0313
:1036000005D5504B03FB01F34D4C236004E04B4BBD
:1036100003FB01F34A4C236002E0484B484C236013
:10362000414B1B68484CC3F303131B5D1800444B0C
:103630001B68C340424C236010BC704780B500F04B
:1036400001F801BD82B000200190002000903548B3
:10365000006850F48030334908603248006810F444
:10366000003000900198401C01900098002803D180
:103670000198B0F5A06FF0D12A480068800302D508
:103680000120009001E0002000900098012847D11F
:103690002E48006850F010002C4908602B48006844
:1036A00080088000294908602848006850F002001E
:1036B000264908601C4800681B4908601A480068D1
:1036C000194908601848006850F48060164908607D
:1036D0001548006830F47C101349086012480068EF
:1036E00050F4E810104908600E48006850F08070EF
:1036F0000C4908600B4800688001FBD50A48006847
:1037000080088000084908600748006850F00200FF
:10371000054908600448006810F00C000828F9D139
:1037200002B0704700100240041002400000FFF891
:10373000FFFFF6FE0810024008ED00E000127A00DC
:103740003C00002000093D00400000200020024015
:1037500000000102030405060708090A0B0C0D0E00
:103760000F10111213141516171800000000000096
:103770005804002058070020000000000102030444
:1037800001020304060708090204060800A24A040D
:103790000000000000000000010203040607080901
:1037A000D007010C19E050F8041BCB0744BFA9F166
:1037B00001035918121F0023042A41F8043BF9D2CF
:1037C0005FEA827C0B4604D54FF0000CA1F800C0E4
:1037D0009B1CD10744BF0021197050F8042B002A0C
:1037E000E1D1704710B450F8041B79B10268436806
:1037F00012180830DC0744BFA9F10104E31852F89D
:10380000044B43F8044B091FF9D1ECE710BC704797
:1038100010B5074979441831064C7C44163404E04D
:103820000A68081D511888470146A142F8D110BD09
:1038300008000000280000006DFFFFFF00070000E7
:1038400058040020000000009DFFFFFF540000000E
:1038500000FFFFFF00000020000000007047FEE7AF
:10386000FEE7FEE7FEE770477047704702480068D2
:10387000401C014908607047400B002000F00BF825
:10388000002801D0FFF7C4FF0020C046C046FFF764
:1038900026FD00F002F80120704700F001B800009A
:1038A0000746384600F002F8FBE7000080B5C04646
:1038B000C046024A11001820ABBEFBE726000200FA
:1038C0004745454B54494D45532E52550000000085
:1038D0004C415345522050524F4A4543544F520099
:1038E00001488047014800474D350008F13800087D
:1038F000C046C046C046C046FFF7C0FFFFF7AEBF98
:10390000FFF7ADBFFFF7ACBFFFF7ABBFFFF7AABF35
:10391000FFF7A9BFFFF7A8BFFFF7A7BFFFF7A6BF35
:10392000FFF7FEBFFFF7FEBFFFF7FEBFFFF7FEBFCB
:10393000FFF7FEBFFFF7FEBFFFF7FEBFFFF7FEBFBB
:10394000FFF7FEBFFFF7FEBFFFF7FEBFFFF7FEBFAB
:10395000FFF7FEBFFFF7FEBFFFF7FEBFFFF7FEBF9B
:10396000FFF7FEBFFFF7FEBFFFF7FEBFFFF7FEBF8B
:10397000FFF7FEBFFFF7FEBFFFF7FEBFFFF7FEBF7B
:10398000FEF73AB9FFF7FEBFFFF7FEBFFFF7FEBF36
:10399000FFF7FEBFFFF7FEBFFFF7FEBFFFF7FEBF5B
:1039A000FFF7FEBFFFF7FEBFFFF7FEBFFFF7FEBF4B
:1039B000FFF7FEBFFFF7FEBFFFF7FEBFFFF7FEBF3B
:0439C000FFF7FEBF50
:04000005080038F1C6
:00000001FF
