:020000040800F2
:1000000018050020A13100083D3100083F310008EB
:10001000413100084331000845310008000000006C
:100020000000000000000000000000004731000850
:1000300049310008000000004B3100084D31000834
:10004000E1310008E5310008E9310008ED31000830
:10005000F1310008F5310008F9310008FD310008E0
:100060000132000805320008093200080D3200088C
:100070001132000815320008193200081D3200083C
:100080002132000825320008293200080000000053
:100090000000000000000000000000002D320008F9
:1000A0003132000835320008393200083D3200088C
:1000B000051F000845320008493200084D3200088B
:1000C0005132000855320008593200085D320008EC
:1000D0006132000865320008693200086D3200089C
:1000E0007132000875320008793200080000000003
:1000F0000000000000000000000000000000000000
:1001000000000000000000000000000000000000EF
:1001100000000000000000007D320008813200086D
:10012000B648C16882688160C26001210170704771
:1001300010B5B24CE0684FF4407101F01FFA002096
:100140006080A08010BD2DE9F04F1C46062C81B0C8
:1001500082468B46904608D0082C04D00C2C0CBF4D
:100160000825052502E0062500E004259AF8000090
:10017000DDF8289000265F4609E04B464246B9B2BA
:1001800000F026F8761CF6B2EF1916F80A0098B1BE
:10019000322E11DA062C09D0082CEED00C2CF1D11D
:1001A0004B464246B9B200F0D5F8EBE74B46424623
:1001B000B9B200F075F8E5E7904805FB06B141805B
:1001C000A0F8048005FB06F001B0BDE8F08F000048
:1001D0002DE9F047A0F120045F2C40D22038C0B2B6
:1001E0000FF21C2500EB8000002428444FF001088A
:1001F00090F800C00026174608FA06F505EA0C0E2E
:10020000052C08BF4FF0000E9D072CD5BEF1000F46
:100210002CD089B2FF2917DC8D0801EB5575BFB2D0
:100220004FEAD50E0EEB4715DFF8D0E1DEF80CE013
:1002300015F80E9001F0070ACAF1070A08FA0AFA3F
:1002400029EA0A0905F80E90761C7F1C082ED3DBDC
:10025000641C491C401C062CCADBBDE8F087C02882
:10026000FBDB6138BBE7BEF1000FD2D089B2FF29BA
:10027000EADC8D0801EB5575BFB24FEAD50E0EEBE7
:100280004715DFF878E1DEF80CE015F80E9001F084
:10029000070ACAF1070A08FA0AFA4AEA0909D1E77D
:1002A0002DE9F04F0FF2944500EB40065FF000049B
:1002B00005EB46004FF00108C4F1030E4FF00009B2
:1002C0008246944608FA0EFE9AF800509E070EEAFF
:1002D000050526D53DB389B2FF2913DC8E0801EB55
:1002E00056751FFA8CFCED0805EB4C16434DED6876
:1002F000775D01F0070BCBF1070B08FA0BFB27EA40
:100300000B07775509F10109B9F1060F0CF1010C42
:100310000AF1010AD8DB641C491C042CCCDBBDE8C3
:10032000F08F002DD7D089B2FF29EBDC8E0801EBCE
:1003300056751FFA8CFCED0805EB4C162F4DED6839
:10034000775D01F0070BCBF1070B08FA0BFB4BEACB
:100350000707D6E72DE9F047A0F12003612B0FF640
:10036000DC1838BF2038C0B20B2505FB00880023FD
:1003700001250026C146944605FA03FE99F80000BF
:1003800010EA0E0F89B215D0FF2929DC880801EB8D
:1003900050701FFA8CFCC00800EB4C141748C06862
:1003A000275C01F0070ACAF1070A05FA0AFA4AEAC5
:1003B000070714E0FF2913DC880801EB50701FFACF
:1003C0008CFCC00800EB4C140C48C068275C01F0A2
:1003D000070ACAF1070A05FA0AFA27EA0A072754A0
:1003E000761C0B2E0CF1010C09F10109C6DB5B1C1C
:1003F000491C072BBDDBBDE8F08700004000002052
:10040000000000000000002F00000007000700149B
:100410007F147F14242A7F2A12231308646236492A
:100420005522500005030000001C2241000041221B
:100430001C0014083E081408083E0808000050304C
:100440000008080808080060600000201008040286
:100450003E5149453E00427F40004261514946219C
:1004600041454B311814127F1027454545393C4A08
:100470004949300171090503364949493606494958
:10048000291E0036360000005636000008142241AE
:100490000014141414140041221408020151090616
:1004A000324959513E7E1111117E7F494949363EEC
:1004B000414141227F4141221C7F494949417F09F5
:1004C0000909013E4149497A7F0808087F00417FB8
:1004D00041002040413F017F081422417F404040BD
:1004E000407F020C027F7F0408107F3E4141413E65
:1004F0007F090909063E4151215E7F0919294646B7
:100500004949493101017F01013F4040403F1F20DF
:1005100040201F3F4038403F6314081463070870B1
:1005200008076151494543007F414100020408101A
:10053000200041417F00040201020440404040404D
:10054000000102040020545454787F484444383851
:1005500044444420384444487F3854545418087E56
:100560000901020C5252523E7F0804047800447D77
:1005700040002040443D007F1028440000417F405F
:10058000007C041804787C08040478384444443817
:100590007C14141408081414187C7C0804040848FB
:1005A00054545420043F4440203C4040207C1C20B4
:1005B00040201C3C4030403C44281028440C505003
:1005C000503C4464544C44080836414100007F00CC
:1005D00000414136080802010202017E1111117E1C
:1005E0007F494949337F494949367F01010103E089
:1005F000514F41FF7F4949494977087F0877494969
:100600004949367F1008047F7C2112097C7F081439
:10061000224120413F017F7F020C027F7F080808B2
:100620007F3E4141413E7F0101017F7F090909066B
:100630003E4141412201017F0101274848483F1CBA
:10064000227F221C63140814637F404040FF070888
:1006500008087F7F407F407F7F407F40FF017F48C9
:1006600048307F4830007F7F484830002241494968
:100670003E7F083E413E462919097F205454547854
:100680003C4A4A49317C545428007C0404040CE060
:10069000544C44FC38545454086C107C106C444442
:1006A0005454287C2010087C78422412787C10282E
:1006B000440020443C047C7C0810087C7C10101012
:1006C0007C38444444387C0404047C7C14141408AE
:1006D000384444444404047C04040C5050503C18F6
:1006E000247E241844281028447C404040FC0C10F0
:1006F00010107C7C407C407C7C407C40FC047C5026
:1007000050207C5020007C7C5050200028445454C1
:10071000387C10384438085434147C000609090623
:1007200010207F01011D151200007C5454000004AC
:100730007C047C44FE2020201E000000EEEEEEEE45
:10074000EE00EEEEEEEEEE00EEEEEEEEEE00EEEE93
:10075000EEEEEE00EEEEEEEEEE00EEEEEEEEEE0083
:10076000EEEEEEEEEE00EEEEEEEEEE00EEEEEEEE85
:10077000EE00EEEEEEEEEE00EEEEEEEEEE00EEEE63
:10078000EEEEEE00EEEEEEEEEE00EEEEEEEEEE0053
:10079000EEEEEEEEEE00EEEEEEEEEE00EEEEEEEE55
:1007A000EE00EEEEEEEEEE00EEEEEEEEEE00EEEE33
:1007B000EEEEEE00EEEEEEEEEE00EEEEEEEEEE0023
:1007C000EEEEEEEEEE00EEEEEEEEEE00EEEEEEEE25
:1007D000EE00EEEEEEEEEE00EEEEEEEEEE00EEEE03
:1007E000EEEEEE00EEEEEEEEEE00EEEEEEEEEE00F3
:1007F000EEEEEEEEEE00EEEEEEEEEE0000000000AD
:100800000000444444004400AAAA00000000AAFFDB
:10081000FFAA00004466EECC4400AA224488AA0045
:10082000669966AADD002244000000002244444488
:10083000220044222222440000AA44AA00000044CC
:10084000EE4400000000004488000000EE000000BC
:1008500000000000440000224488000044AAAAAA24
:10086000440044CC4444EE00CC224488EE00EE2206
:100870006622EE00AAAAEE222200EE88EE22EE0008
:10088000EE88EEAAEE00EE2222222200EEAAEEAAC6
:10089000EE00EEAAEE222200000044004400000018
:1008A0004400448822448844220000EE00EE000008
:1008B000884422448800EE226600440044EEEE881C
:1008C000440044AAEEAAAA00CCAACCAACC0066880E
:1008D00088886600CCAAAAAACC00EE88EE88EE0032
:1008E000EE88EE8888006688EEAA6600AAAAEEAABC
:1008F000AA00EE444444EE00222222AA4400AAAAFE
:10090000CCAAAA0088888888EE00AAEEEEAAAA00DF
:10091000AAEEEEEEAA0044AAAAAA4400CCAACC8869
:10092000880044AAAAEE6600CCAAEECCAA0066888B
:100930004422CC00EE4444444400AAAAAAAA660079
:10094000AAAAAA444400AAAAEEEEAA00AAAA44AA05
:10095000AA00AAAA44444400EE224488EE00664459
:100960004444660000884422000066222222660079
:1009700044AA000000000000000000FF88440000BE
:100980000000000066AAEE008888CCAACC00000017
:1009900066886600222266AA660000EEEE8866007F
:1009A0002244EE4444000066AA66EE008888CCAA81
:1009B000AA004400444444004400444488000088A1
:1009C000AACCAA0000CC4444EE000000EEEEAA003F
:1009D0000000CCAAAA000044AAAA44000000CCAAA5
:1009E000CC88000066AA662200CCAA88880000662F
:1009F000CC22CC000044EE4444000000AAAA6600C9
:100A00000000AAEE44000000AAEEEE000000AA4496
:100A1000AA000000AAEE22CC00EE66CCEE00224432
:100A2000CC44220044440044440088446644880086
:100A300055AA0000000044AAAAEE0000EEEEEEEE79
:100A4000EE00EEEEEEEEEE00EEEEEEEEEE00EEEE90
:100A5000EEEEEE00EEEEEEEEEE00EEEEEEEEEE0080
:100A6000EEEEEEEEEE00EEEEEEEEEE00EEEEEEEE82
:100A7000EE00EEEEEEEEEE00EEEEEEEEEE00EEEE60
:100A8000EEEEEE00EEEEEEEEEE00EEEEEEEEEE0050
:100A9000EEEEEEEEEE00EEEEEEEEEE00EEEEEEEE52
:100AA000EE00EEEEEEEEEE00EEEEEEEEEE00EEEE30
:100AB000EEEEEE00EEEEEEEEEE00EEEEEEEEEE0020
:100AC000EEEEEEEEEE00EEEEEEEEEE00EEEEEEEE22
:100AD000EE00EEEEEEEEEE00EEEEEEEEEE00EEEE00
:100AE000EEEEEE00EEEEEEEEEE00EEEEEEEEEE00F0
:100AF000EEEEEEEEEE00EEEEEEEEEE00EEEEEEEEF2
:100B0000EE00EEEEEEEEEE00EEEEEEEEEE00EEEECF
:100B1000EEEEEE00EEEEEEEEEE00EEEEEEEEEE00BF
:100B2000EEEEEEEEEE00EEEEEEEEEE00EEEEEEEEC1
:100B3000EE00EEEEEEEEEE00EEEEEEEEEE00EEEE9F
:100B4000EEEEEE00EEEEEEEEEE00EEEEEEEEEE008F
:100B50000066CC66000000CC66CC000088228822AB
:100B60008822AA55AA55AA55CC4488CC00004444F2
:100B7000444444443322AA662200AAAAAACC88008C
:100B800000FFAAAABB00EE88EE88EE000000CCCCE5
:100B900044446666EEEE66666666666666660000F5
:100BA000EEEE66666666EEEE00006666EE0000003B
:100BB0004444CCCC00000000CC444444444477007E
:100BC00000004444FF0000000000FF44444444444B
:100BD000774444440000FF0000004444FF44444480
:100BE00044447777444466667766666666667777D8
:100BF00000000000777766666666FFFF0000000071
:100C0000FFFF66666666777766660000FFFF000096
:100C10006666FFFF66664444FFFF00006666FF00ED
:100C200000000000FFFF44440000FF666666666641
:100C30007700000044447777000000007777444451
:100C40000000776666666666FF6666664444FFFF78
:100C500044444444CC000000000077444444FFFF77
:100C6000FFFFFFFF000000FFFFFFCCCCCCCCCCCCC3
:100C7000333333333333FFFFFF000000EEEEEEEE8D
:100C8000EE00EEEEEEEEEE00EEEEEEEEEE00EEEE4E
:100C9000EEEEEE00EEEEEEEEEE00EEEEEEEEEE003E
:100CA000EEEEEEEEEE00EEEEEEEEEE00EEEEEEEE40
:100CB000EE00EEEEEEEEEE00EEEEEEEEEE00EEEE1E
:100CC000EEEEEE00EEEEEEEEEE00EEEEEEEEEE000E
:100CD000EEEEEEEEEE00EEEEEEEEEE00EEEEEEEE10
:100CE000EE00EEEEEEEEEE00EEEEEEEEEE00EEEEEE
:100CF000EEEEEE00EEEEEEEEEE00EEEEEEEEEE00DE
:100D0000EEEEEEEEEE00EEEEEEEEEE00EEEEEEEEDF
:100D1000EE00EEEEEEEEEE00EEEEEEEEEE00EEEEBD
:100D2000EEEEEE00EEEEEEEEEE00EEEEEEEEEE00AD
:100D3000000066660000EEEEEEEEEE000000000041
:100D40000000000000000008080808080808080063
:100D50000808121212000000000000000048482499
:100D60007F2424127F120909083E4909093E484898
:100D7000493E0847252710100808047252710609D9
:100D80000909262225291129460808080000000023
:100D90000000000008040402020202020404080425
:100DA0000808101010101008080400082A1C2A084F
:100DB000000000000000000008083E0808000000D5
:100DC0000000000000000000080C0400000000000B
:100DD0003E000000000000000000000000000018BD
:100DE0001810101008080804040402021C225151B3
:100DF0004949494545221C080C0A08080808080802
:100E0000083E1E2140404020100804027F1F204061
:100E100040201E204040201F30282422217F2020F7
:100E20002020207F0101011F20404040201F380466
:100E300002011D23414141221C7F40202010100847
:100E4000080404021C224141221C224141221C1C94
:100E500022414141625C4020100E00000C0C000059
:100E6000000C0C000000000C0C0000000C0C08042E
:100E70000040300C0201020C304000000000007FF6
:100E800000007F0000000001061820402018060125
:100E9000003E414040300808080008081C22414933
:100EA0005555553901023C081414222241417F4115
:100EB00041411F2121211F21414141211F3C42016C
:100EC000010101010101423C1F22424242424242D1
:100ED00042221F7F0101011F01010101017F7F01EA
:100EE00001013F0101010101013C42010101794180
:100EF0004141423C414141417F4141414141411CCD
:100F00000808080808080808081C1E10101010100F
:100F1000101010110E2111090503030509112141BB
:100F2000010101010101010101017F4163555549A1
:100F30004941414141414141414343454951516149
:100F4000411C2241414141414141221C1F2141415B
:100F500041211F010101011C2241414141414951EF
:100F6000225C1F21414141211F091121411C2241C5
:100F700001021C204041221C7F08080808080808BC
:100F8000080808414141414141414141221C414140
:100F9000222222221414140808414141414949499E
:100FA0005555634141222214080808142222414168
:100FB000412214140808080808087F40402010083F
:100FC000040201017F1C0404040404040404041C3E
:100FD00001020204040408080810100E080808089A
:100FE00008080808080E081422410000000000004C
:100FF00000000000000000000000007F0408000066
:10100000000000000000000000003E41407E414121
:10101000615E0101011D2341414141231D0000008A
:101020003C4201010101423C4040405C624141417F
:1010300041625C0000001C22417F0101423C1C0413
:10104000040E040404040404040000005E61416111
:101050005E40211E0101013D4341414141414108A2
:1010600008000808080808080808001000181010F0
:10107000101010120C010101211109070911214161
:10108000040404040404040404040C000000255BAC
:101090004949494949490000001D23414141414115
:1010A000410000001C2241414141221C0000001F60
:1010B000214141211F01010000002C322121213258
:1010C0002C200000003D430101010101010000004E
:1010D0003E41010E3040413E0004043E040404043D
:1010E000040438000000212121212121312E00009B
:1010F00000414122221414080800000041414149E6
:1011000049494936000000412214080814224100D0
:10111000000042424224381008060000007F2010E0
:10112000080402017F1808080804060408080818C3
:1011300008080808080808080808080C0808081023
:1011400030100808080C00000000040A51200000BC
:10115000007F7F7F7F7F7F7F7F7F7F7F000000001A
:101160000000000000000055494222242418100805
:10117000040300140841414224381008061E1010D0
:10118000101010101010110E000000211E12121E5F
:10119000210000407F010101010101010101080856
:1011A00008080000000808080810080408142214A1
:1011B00008100804147F0101011F010101017F1CB7
:1011C00022415D4545455D41221C3C420101011F14
:1011D000010101423C000000482412091224480089
:1011E00000000000007F4040000000000000000000
:1011F0001C00000000003E41415D554D55554141E8
:101200003E14001C080808080808081C00001C22DE
:1012100022221C00000000000008083E0808003ED2
:1012200000001C0808080808080808081C0808002E
:1012300008080808080808080000203F010101010B
:1012400001010100000022222222225E0201007E12
:101250002726242424242424240000000808000035
:10126000000000000012001C22417F0101221C70BE
:10127000507000434549516141410000003C42012A
:101280001F0101423C0000000912244824120900F9
:10129000001000181010101010120C1C2241010236
:1012A0001C204041221C0000003E41010E30404104
:1012B0003E0014000808080808080808081414224A
:1012C0002241417F4141417F0101011F21414141B3
:1012D000211F1F2121211F21414141211F7F010188
:1012E00001010101010101013E22222222222222CA
:1012F00022227F7F0101011F01010101017F494974
:10130000492A1C1C2A2A4949491E214040201E20E6
:101310004040211E41615151494545434141414DA4
:101320006151514945454341414161110909050355
:10133000050911214178444242424242424242411F
:101340004163555549494141414141414141417FF5
:101350004141414141411C224141414141414122E0
:101360001C7F414141414141414141411F21414196
:1013700041211F010101013C420101010101010163
:10138000423C7F080808080808080808084141424C
:101390002224241810080403081C2A4949494949F1
:1013A0002A1C084122221408080814222241212163
:1013B000212121212121213F404141414141417EC3
:1013C00040404040414141494949494949497F419B
:1013D00041414949494949497F40030202021E22CD
:1013E000424242221E4141414147495151514947E0
:1013F000010101011F21414141211F0F30204040C7
:101400007C404020300F1129454545474545452939
:10141000117C42414141427C484442410000003E2F
:1014200041407E4141615E1C02011D234141414119
:10143000231D0000001F21211F2121211F0000006A
:101440003F010101010101010000003C2222222193
:1014500021217F0000001C22417F0101423C00004D
:101460000049492A1C2A4949490000003E41403CA4
:101470004040413E00000021213129252523210043
:1014800000002D21312925252321000000611109AB
:101490000709112141000000784442424242424182
:1014A0000000004163554941414141000000414174
:1014B000417F414141410000001C22414141412204
:1014C0001C0000007F414141414141410000001D9D
:1014D000234141231D01010000003C4201010101A3
:1014E000423C0000007F08080808080808000000C7
:1014F0004141422438100806000000081C2A4949CE
:101500002A1C08000000412214080814224100008F
:10151000002121212121213E400000004141414183
:101520007E404040000000414149494949497F000F
:1015300000004141494949497F400000000302023F
:101540003E4242423E0000004141414F5151514F05
:101550000000000101013F4141413F0000001E2108
:10156000407C4040211E0000001129454747452985
:10157000110000007E4141417E484442002200F0BB
:1015800001B80000401810F0030308D0C91A1FD397
:10159000DB0748BF00F8012D28BF20F8022D1300FB
:1015A00030B414461546103928BF20E93C00FAD85B
:1015B000490728BF20E90C0048BF40F8042D8900E6
:1015C00028BF20F8022D48BF00F8012D30BC70471D
:1015D000C91818BF00F8012DCB0728BF00F8012D4E
:1015E0007047000000B5DFF85016884281B008D17E
:1015F00001214FF4006000F049FC00214FF400602D
:10160000C1E0B0F1804F06D10121012000F047FC7C
:10161000002101208CE0DFF82416884206D1012148
:10162000022000F03CFC0021022081E0DFF81016CF
:10163000884206D10121042000F031FC0021042061
:1016400076E0DFF80016884206D10121082000F07C
:1016500026FC002108206BE0DFF8EC15884206D15B
:101660000121102000F01BFC0021102060E0DFF8B9
:10167000DC15884206D10121202000F010FC002159
:10168000202055E0DFF8C815884208D101214FF429
:10169000005000F0FBFB00214FF4005073E0DFF836
:1016A000B415884208D101214FF4002000F0EEFB70
:1016B00000214FF4002066E0DFF89C15884208D135
:1016C00001214FF4801000F0E1FB00214FF4801065
:1016D00059E0DFF88815884208D101214FF4001045
:1016E00000F0D4FB00214FF400104CE0DFF870153F
:1016F000884206D10121402000F0D1FB002140208A
:1017000016E0DFF86015884206D10121802000F044
:10171000C6FB002180200BE0DFF84C1588420CD17D
:1017200001214FF4807000F0BAFB00214FF480706B
:1017300001B05DF804EB00F0B2BBDFF83015884271
:1017400008D101214FF4803000F0A0FB00214FF4BC
:10175000803018E0DFF81815884208D101214FF4D5
:10176000003000F093FB00214FF400300BE0DFF875
:10177000041588420CD101214FF4802000F086FB33
:1017800000214FF4802001B05DF804EB00F07EBB37
:1017900001B000BD0388DFF8A02490421CBFDFF831
:1017A000B0C460450ED0B0F1804F1CBFDFF88CC4D0
:1017B000604507D0DFF888C460451CBFDFF884C4EB
:1017C000604507D14FF68F7C0CEA0303B1F802C0E5
:1017D0004CEA0303DFF870C460451CBFDFF86CC43B
:1017E000604507D04FF6FF4C0CEA0303B1F806C082
:1017F0004CEA0303038090428B8883850B88038522
:101800001CBFDFF84C2490420AD0DFF860249042DD
:101810001FBFDFF85C249042DFF85824904201D1CA
:10182000097A018601218182704730B4028C4FF61B
:10183000FE731A4002844FF68C75048C8288038BE9
:101840002B400D882B434FF6FD752C400D892C4302
:101850004D882C43DFF8E053A8421CBFDFF8F0535B
:10186000A8420AD0DFF80454A8421FBFDFF8005492
:10187000A842DFF80054A84210D14FF6F7752C406B
:101880004D892C434FF6FB752C408D882C434FF629
:10189000FF452A408D892A43CD892A4382800383CC
:1018A000C9888186048430BC704770B4028C4FF6BE
:1018B000EF731A40028448F6FF45048C8288038B3C
:1018C0004E882B400D8843EA05234FF6DF752C40E8
:1018D0000D89354344EA0514DFF85C53A8421CBF68
:1018E000DFF86C53A84213D14FF67F752C404D8919
:1018F000CE8944EA05144FF6BF752C408D8844EA22
:1019000005144FF2FF352A408D89354342EA85029E
:1019100082800383C9880187048470BC704770B4D7
:10192000028C4FF6FF631A4002844FF68C75048CCC
:101930008288838B4E882B400D882B434FF6FF55B2
:101940002C400D89354344EA0524DFF8EC52A842C7
:101950001CBFDFF8FC52A84213D14FF2FF752C4098
:101960004D89CE8944EA05244FF6FF352C408D88F9
:1019700044EA05244CF6FF752A408D89354342EA36
:10198000051282808383C9888187048470BC704774
:1019900070B4028C4EF6FF731A40028448F6FF457D
:1019A000048C8288838B4E882B400D8843EA052364
:1019B0004DF6FF752C400D89354344EA0534DFF8B8
:1019C0007852A8421CBFDFF88852A84205D14BF6D6
:1019D000FF752A408D8942EA851282808383C988F7
:1019E000A0F84010048470BC7047F0B54C888B8818
:1019F0000A890E88DFF84052B6BB068C4FF6FE7798
:101A00003E4006844FF60C7C078B068C0CEA0707D9
:101A10003B4343EA0212A8421CBFDFF8343298422B
:101A200010D0B0F1804F1CBFDFF81032984209D0BF
:101A3000DFF80C3298421EBFDFF8083298424FF6AA
:101A4000F57301D14FF6FD733340234343F0010397
:101A5000028303844FF6F373C988028B1A40028312
:101A6000028B11430183F0BD042E3CD1068C4FF64E
:101A7000EF773E40068440F6FF4E078B068C0EEA59
:101A8000070747EA023242EA0322A8421CBFDFF8F6
:101A9000C031984213D0B0F1804F1CBFDFF89C31A9
:101AA00098420CD0DFF8983198421CBFDFF894318F
:101AB000984204D04FF65F733340234304E04FF65F
:101AC000DF73334043EA041343F0100302830384BB
:101AD0004FF2FF33C988028B1A400283028B42EA1D
:101AE00001210183F0BD082E068C39D14FF6FF6726
:101AF0003E4006844FF60C7E878B068C0EEA070765
:101B00003B4343EA0212A8421CBFDFF8443198422B
:101B100013D0B0F1804F1CBFDFF8203198420CD0B9
:101B2000DFF81C3198421CBFDFF81831984204D00E
:101B30004FF2FF533340234304E04FF6FF5333404B
:101B400043EA042343F48073828303844FF6F373E0
:101B5000C988828B1A408283828B11438183F0BDB6
:101B60004EF6FF773E40068440F6FF4E878B068C8C
:101B70000EEA070747EA032343EA0232A8421CBFE2
:101B8000DFF8CC30984213D0B0F1804F1CBFDFF8A3
:101B9000AC3098420CD0DFF8A83098421CBFDFF878
:101BA000A430984204D047F6FF533340234304E067
:101BB0004DF6FF73334043EA043343F4805382838A
:101BC00003844FF2FF33C988828B1A408283828B51
:101BD00042EA01218183F0BD4FF6FF71818000212F
:101BE0000180C180418001727047002101804180E5
:101BF0008180C180018141818181C181704700293B
:101C0000018812BF41F001014FF6FE7211400180C0
:101C100070470029B0F8441012BF41F40041490454
:101C2000490CA0F844107047002A828914BF114360
:101C300022EA010181817047002C0140000400402C
:101C400000080040000C004000100040001400405C
:101C500000340140004C014000500140005401405C
:101C600000180040001C00400020004000400140DF
:101C700000440140004801400029018812BF41F0A2
:101C800080014FF67F72114001807047028B4FF642
:101C9000F7731A40114301837047828B4FF6F77335
:101CA0001A40114381837047828B4FF2FF731A40B1
:101CB00042EA0121818370478185704781867047A0
:101CC0000187704781877047A0F840107047808E69
:101CD0007047038A8089002208400B421CBF0028FD
:101CE000012210467047C943018270477848794AFB
:101CF000016841F001010160416811404160764A8C
:101D0000016811400160016821F48021016041688F
:101D100021F4FE0141604FF41F01816070476C495E
:101D20000A6822F480320A60B0F5803F0A6822F423
:101D300080220A6003D0B0F5802F05D07047086874
:101D400040F4803008607047086840F4A0200860C4
:101D5000704781B0002000905D490A68009B5B1CC1
:101D60000093009BB3F5A06F01D09203F5D50968ED
:101D7000890348BF012001B07047584A136823F413
:101D80007C1318430843106070475549086070473A
:101D900052490A68920840EA8200086070474F483A
:101DA000006800F00C0070474C490A6822F0F0020D
:101DB00010430860704749490A6822F4E062104302
:101DC0000860704745490A6822F4605242EAC00040
:101DD0000860704741490A6802F00C02082A0FD1D6
:101DE0000A680B68C2F38342921CDB0358BF3D4B69
:101DF00004D50B689B034CBF3A4B3B4B5A4300E066
:101E0000394A02600B68394AD0F800C0C3F30313A3
:101E10009B5C2CFA03FCC0F804C00B68D0F804C02B
:101E2000C3F302239B5C2CFA03FCC0F808C00B68C8
:101E3000D0F804C0C3F3C2239B5C2CFA03FCC0F8A7
:101E40000CC00968C368C1F381318918097CB3FBF0
:101E5000F1F101617047264A0029116814BF084357
:101E600021EA000010607047224A0029116814BF5F
:101E7000084321EA0000106070471F4A00291168DA
:101E800014BF084321EA0000106070471B4A002974
:101E9000116814BF084321EA000010607047184A17
:101EA0000029116814BF084321EA00001060704740
:101EB0004109074A012908BF116803D002290CBF54
:101EC000116A516A00F01F00C14001F00100704723
:101ED000001002400000FFF8FFFFF6FE0410024071
:101EE0006000424200093D0000127A0060000020BC
:101EF00014100240181002401C1002400C10024046
:101F00001010024070B54FF080450221AE8C28467B
:101F1000FFF7DFFE012822D12846E14CFFF7D7FE6C
:101F2000E080E088301A20812089A884E08800F0D1
:101F300095F9A08002212846FFF7D5FE00202070E9
:101F400048F6A141E0888842ACBF012000206070C3
:101F500000F014F8D348016881F400710160042195
:101F60002846FFF7B6FE012806D104212846FFF7D0
:101F7000BAFEBDE8704001E070BD000030B5C84C4D
:101F800081B06078012805D1C748016841F080011F
:101F900001606CE0207804286ED8DFE800F00312BE
:101FA00026395A00E0884000642190FBF1F081B2AC
:101FB0004FF08040FFF784FE2078401C207001B075
:101FC00030BDE08800EB40014800642190FBF1F057
:101FD00081B24FF08040FFF773FE2078401C2070E4
:101FE00001B0BDE8304000F00EBAE088322148432D
:101FF000642190FBF1F081B24FF08040FFF760FE6A
:102000002078401C207001B0BDE8304000F0D4B909
:10201000E08800EB8010642190FBF1F081B24FF07A
:102020008040FFF74DFE2078A04D401C207000F04E
:10203000DBF900F005FA2888C0B200F0ABF9A0780F
:10204000D0B12888C0B9FEF76BF80020A07001B0AD
:1020500030BDE0886E214843642190FBF1F081B2ED
:102060004FF08040FFF72CFE2078401C207001B01C
:10207000BDE8304000F0C3B901B030BD00B581B05B
:1020800000F084F801B05DF804EB30B58BB00121AD
:102090000120FFF7F2FE0120ADF8000069460320A1
:1020A0008DF8020004208DF803004FF08055804821
:1020B000804C00F0F9FA4FF08040FFF793FA04A843
:1020C000FFF78AFD4FF6FF70ADF814007A497B48A0
:1020D0000068B0FBF1F0401EADF8100004A900202C
:1020E000ADF81600ADF812004FF08040FFF752FB3C
:1020F00001214FF08040FFF7BFFD0020ADF8040044
:1021000001A90220ADF806000120ADF8080000206A
:10211000ADF80A000220ADF80C004FF08040FFF748
:1021200064FC07A8FFF761FD6020ADF81C0007A95B
:102130000020ADF81E004FF44870ADF822000020DA
:10214000ADF824004FF08040FFF7AFFB01220221E1
:102150004FF08040FFF768FD302084F81C032560B5
:10216000012204214FF08040FFF75EFD502084F8EB
:102170001C03256000214FF08040FFF74AFD01213C
:102180004FF08040FFF73BFD0BB030BD10B588B07D
:1021900001210420FFF771FE01210120FFF764FEF9
:1021A0004020ADF80000694603208DF80200182099
:1021B0008DF80300424C434800F076FA2046FFF7C2
:1021C00011FA01A8FFF708FD49F64040ADF80800F4
:1021D0003D493A480068B0FBF1F0401EADF80400FC
:1021E00001A90020ADF80A00ADF806002046FFF76F
:1021F000D1FA01212046FFF73FFD04A8FFF7F5FCC7
:102200006020ADF8100004A90120ADF8120044F6DA
:102210002060ADF816000020ADF818002046FFF74A
:1022200004FB08212046FFF731FD01212046FFF77E
:10223000F0FC01212046FFF7E2FC08B010BD30B5EC
:1022400004461F4D81B021462846FFF735FD610841
:10225000284601B0BDE83040FFF730BD1B4A137877
:102260005B1C0021DBB2202BA8BF00231370137866
:1022700002EB43039880101D5FF0080230F8023B28
:10228000591830F8023B591830F8023B591830F809
:10229000023B5918521EF1D1C802000C70470000D1
:1022A0000C0100200C1001400C0801400A01002024
:1022B0000008014000E100E000366E0174000020DB
:1022C00000080040000C0140801A0600180B002096
:1022D00010B592B001214FF48050FFF7C5FD0121E8
:1022E0000520FFF7C1FD8020ADF8000069460320FE
:1022F0008DF8020018208DF80300454C454800F089
:10230000D3F90020ADF8040001A94FF48270ADF8B4
:102310000600002002900120ADF80C004FF4007080
:10232000ADF80E002020ADF810000720ADF8140025
:102330000020ADF81200204600F046FA01220221EA
:10234000204600F067FA0121204600F059FA0121E9
:102350000120FFF780FD304C204600F06DFA2F4839
:10236000069006A92E48079010200890202009907A
:1023700000200A9080200B9000200C900D900E9071
:102380004FF440500F9000201090204600F0CCFAFF
:1023900012B010BD234BC15C69B1C05C401EC0B21D
:1023A000182808DA2049096801EB4011202203F1BE
:1023B000200000F001BB704710B5174C00212046EB
:1023C00000F0CDFA1648E060202060604FF4006015
:1023D00000F0CFFA40210E4800F024FA2046BDE874
:1023E0001040012100F0BBBA00B581B000210A48BD
:1023F00000F0B5FA09490020088001B000BD074986
:10240000FF200880704705490020088070470000C1
:102410000030014000080140300002400C30014013
:1024200020000020000000204800002000B581B0FE
:1024300000F0FEF800F0A1F801B05DF804EB2BE02D
:1024400070B5924C924EB4F88200401CA4F8820001
:10245000B4F882002028A4BF0020A4F88200B4F8B9
:10246000820094F880100D18EDB2202DA4BF203DFD
:10247000EDB234F815103046FFF724FC04EB4500AC
:10248000B0F840103046FFF71FFC34F81510BDE8D7
:102490007040002000F0ECBA2DE9F0437B4CDFF8EF
:1024A000F491DFF8F48181B00027254604F140065D
:1024B000F8B200F0EDFA414600F0FAFA494600F0B1
:1024C00063FB00F0A3FB288040F2924035F8021B2A
:1024D000401A26F8020B7F1CF8B200F0D9FA4146E8
:1024E00000F0E6FA494600F04FFB00F08FFB288031
:1024F00040F2924035F8021B401A26F8020B7F1C6E
:10250000F8B200F0C5FA414600F0D2FA494600F0B0
:102510003BFB00F07BFB288040F2924035F8021B29
:10252000401A26F8020B7F1CF8B200F0B1FA4146BF
:1025300000F0BEFA494600F027FB00F067FB288058
:1025400040F2924035F8021B7F1C401A1C2F26F8DF
:10255000020BADDB4FF4FA7040F29E212187A4F804
:1025600078006187A4F87A00A187A4F87C00E1874D
:10257000A4F87E0001B0BDE8F08310B588B0012159
:102580000220FFF77AFC01210120FFF76DFC0320F8
:10259000ADF800008DF80200694618208DF80300A0
:1025A0003B4C3E4800F080F82046FFF71BF805A89A
:1025B000FFF712FB3A48006844F62061B0FBF1F0E7
:1025C000ADF8180005A900200590ADF81A002046C6
:1025D000FFF7E0F801A8FFF708FB6020ADF8040062
:1025E00001A90120ADF806004FF4FA70ADF80A0019
:1025F0000020ADF80C002046FFF791F94FF47A70F7
:10260000ADF80A0001A92046FFF7C2F908212046CB
:10261000FFF743FB08212046FFF746FB0121204638
:10262000FFF72AFB01212046FFF7E9FA08B010BDA9
:1026300000B585B001214FF00050FFF71EFC0121CD
:102640000520FFF711FC1020ADF8000069460020BE
:102650008DF8030003208DF80200124800F024F8E2
:10266000002001900290049001A900F0E1F90121FD
:10267000002000F0F1F90021002000F0F9F900211C
:10268000102000F0E9F905B000BD0000880000202E
:102690000004004000802744D723C2C0000C014042
:1026A00074000020000801402DE9F041CC780022A0
:1026B00004F00F03E40644BF8C7823430C88E5B292
:1026C00025B3D0F800C001255FF00F0605FA02F728
:1026D00007EA0408B84514D14FEA820E06FA0EF84C
:1026E0002CEA080C03FA0EFE4EEA0C0C91F803E0FB
:1026F000BEF1280F08BF476103D0BEF1480F08BFE5
:102700000761521C082AE1D3C0F800C0FF2C28DD65
:10271000D0F804C0002201255FF00F0602F108077F
:1027200005FA07F707EA0408B84515D14FEA820E03
:1027300006FA0EF82CEA080C03FA0EFE4EEA0C0C10
:1027400091F803E0BEF1280F08BF476191F803E05C
:10275000BEF1480F08BF0761521C082ADED3C0F83B
:1027600004C0BDE8F08170B4164A00284CBF9469DB
:10277000146800F44016B6F5401FC0F3034583B259
:1027800006D1156825F0706524F0706415600CE0C2
:10279000C60203D5032606FA05F503E0450D2D0113
:1027A00003FA05F5AC4344F0706421B1410D090111
:1027B00003FA01F10C4300284CBF9461146070BC13
:1027C000704700000400014002880B8802F4415267
:1027D0001A434B881A438B881A43CB881A430B89B8
:1027E0001A434B891A438B891A43CB891A430280B7
:1027F0004FF2FF73828B1A408283098A01827047ED
:102800000029018812BF41F040014FF6BF7211400C
:1028100001807047002A828814BF114322EA010117
:1028200081807047012201F00F0102FA01F189B2A3
:10283000C94301817047000001684FF6FE721140E4
:1028400001600021016041608160C1604D498842A2
:1028500005D14D48016841F00F01016070474B49B7
:10286000884205D14848016841F0F0010160704795
:102870004749884205D14448016841F470610160CC
:1028800070474449884205D13F48016841F470418E
:10289000016070474049884205D13B48016841F4D6
:1028A0007021016070473D49884205D13648016872
:1028B00041F47001016070473949884205D13248BE
:1028C000016841F07061016070473649884205D166
:1028D0002D48D0F8001441F00F0122E0324988421F
:1028E00005D12948D0F8001441F0F00119E02F4932
:1028F000884205D12448D0F8001441F4706110E0FA
:102900002B49884205D12048D0F8001441F4704189
:1029100007E02849884206D11B48D0F8001441F44A
:102920007021C0F80014704702688B686FF30E12B4
:102930001A430B6A1A430B691A434B691A438B6992
:102940001A43CB691A434B6A1A438B6A1A430260D3
:10295000CA6842600A6882604968C160704700299D
:10296000016812BF41F001014FF6FE721140016093
:1029700070470549C2004CBFC1F8000408607047A9
:102980000000000008000240040002401C00024059
:102990003000024044000240580002406C000240F7
:1029A00080000240080402401C040240300402403F
:1029B000440402405804024062B38B0708D0521E00
:1029C00011F8013B00F8013B00F024808B07F6D1A1
:1029D000830740F0208000BF103A07D330B4B1E83D
:1029E0003810103AA0E83810F9D230BC530724BF91
:1029F000B1E80810A0E8081044BF51F8043B40F8C3
:102A0000043BD20724BF31F8022B20F8022B44BF2D
:102A10000B7803707047083A07D3B1E80810083AFA
:102A200040F8043B40F804CBF7D25307E4E700003A
:102A300030B4164A13684D6840F6FE748440A343D0
:102A40000C682C438D68C9682C43214301FA00F0BF
:102A50001843106030BC7047012202FA00F00B4AA4
:102A60000029116814BF084321EA00001060704774
:102A700081B0002200920830044A0092009A801827
:102A800000900098016001B07047000000740040A1
:102A9000002800BF0AD0B0FA80F18840D1F19D0132
:102AA000C905020672F1004241EB10207047000098
:102AB000FF2212EAD05C1DBF12EAD1539445934223
:102AC0002BE09C44D30780EA01021A4043EA00202D
:102AD00043EA0121A1FB0030410038BF40007CF1F6
:102AE0007F010BDBFE294ADA5B0842EAC15153EA57
:102AF000006373F1004C51EB10207047D1F1080CCA
:102B0000DCF120012FDB5B0810FA01F10B4373F1BC
:102B1000004120FA0CF05041704794451CBF02EA76
:102B2000D153934280EA010202F000421DD04000DE
:102B300019D0490017D05BB9634514D00902B1FA26
:102B400081F39940BCEB030CC00140F00040C1E7A9
:102B50000002B0FA80FC10FA0CF0B3EB0C0CC901C7
:102B600041F00041B6E71000704740000AD049002C
:102B700008D010F1807F94BF11F1807F02E042F015
:102B8000FF407047D043704790EA010F44BF81F087
:102B9000004100F05DB800BF421A3CBF801A89189E
:102BA0004FF0004CC0F3C752FF2A24D0C1F3C753E3
:102BB00013B3D21AD2F1190327DD4CEA01214CFAE2
:102BC00003F321EA0303D140C20D4CEA0020401870
:102BD00034BF20EA0C004CEA5000D20553EA0063EF
:102BE00073EB0C0C52EB1020420012F1807F38BFC7
:102BF0007047C00DC0057047490212BF9A4200EBF2
:102C00005120F8E7D2F11703D9D570474100090EDA
:102C10007F3915D4D1F11F0114D4400007D2C0016F
:102C200040F00040C84048BF6FF000407047C0010E
:102C300040F00040C8404CBF4FF000404042704759
:102C40000020704700424FF0004058BFC04370471B
:102C5000431A4FF000423EBF5340C01AC91800BF8C
:102C6000D3095FEAD05C13EB400F34BFB3EB410FE5
:102C700040E07CEBD1530CD342EA012122D8D1EBC6
:102C8000402009D3400A28BF5FEA500140EBCC50F6
:102C90007047401A15D04002B0FA80F2521C9040A2
:102CA000400A4FEA3C23B3EB026384BF00EB73009E
:102CB00007E040F400001A16DB07C2F10102D04021
:102CC00018437047182BFCDC31FA03F202FA03F3C5
:102CD000591A38BF42F00102D2EB40203CBF4000FD
:102CE000ACF1010C5FEACC5CC20572F100414CEB27
:102CF0005020704713EB400F0FD24B0009D0ACEBC4
:102D0000D153022B03DB4902172BDDDD70479143C2
:102D1000401A4300D5D10020704713EB410FD0D3A8
:102D20006FF00000704700002DE9F04387B000F01D
:102D3000A9F801210420FFF797F801210820FFF7E7
:102D400093F801211020FFF78FF801214448FFF785
:102D50000AFD4FF40070ADF80000694603208DF8BD
:102D6000020010208DF803003E48FFF79DFC3E480E
:102D700000684FF47A71B0FBF1F0401EB0F1807F33
:102D800008D23A494860F02081F8130D002088608D
:102D90000720086001A8FFF71DF8029842F21071A1
:102DA000B0FBF1F06421484300900098A8B100986E
:102DB000401E0090009880B10098401E009000983E
:102DC00058B10098401E00900098002805D0009847
:102DD000401E009000980028E9D1FFF727FBFFF77D
:102DE0004DF9FFF775FAFFF70AFBFDF7A1F90FF2AE
:102DF00014180FF200191E4E1E4F1F4C1F4DA868CD
:102E0000216888420AD220686430A86039881C484A
:102E100090FBF1F0E880A888FFF711FAE8682168D4
:102E20008842ECD230780028E9D120683230E8605E
:102E3000FDF77EF90020009008230022002148467B
:102E4000FDF781F900200090082308220021404668
:102E5000FDF779F9E878401CE87001203070CEE782
:102E600000023000001001407400002010E000E07B
:102E70000E010020100100205C0B002050000020FB
:102E800000366E0100B581B0FEF730FF4FF48030A0
:102E9000FEF745FFFEF75DFF012825D1102000F069
:102EA00041F8022000F036F80020FEF77DFF0020F8
:102EB000FEF788FF4FF48060FEF77DFF4FF480211E
:102EC0004FF48030FEF759FF0120FEF75EFF3920F6
:102ED000FEF7EEFF0028FAD00220FEF759FF00BFF0
:102EE000FEF75DFF0828FBD101B05DF804EB00F0B0
:102EF00091B800004745454B54494D45532E525516
:102F0000000000004C415345522050524F4A454367
:102F1000544F5200DFF820100A6802F038021043C4
:102F200008607047DFF810100A6822F010020A608B
:102F30000A68104308607047002002404648474A2C
:102F400082B0016841F001010160416811404160B7
:102F5000434A016811400160016821F48021016049
:102F6000416821F4FE0141604FF41F01816000219E
:102F700001910091016841F480310160016801F420
:102F8000003100910199491C0191009919B90199E9
:102F9000B1F5A06FF2D10168490C01F00101009177
:102FA0000099012930D12F490A6842F010020A60C5
:102FB0000A68920892000A600A6842F002020A60F7
:102FC0004168416041684160416841F4806141600D
:102FD000416821F47C114160416841F4E81141608D
:102FE000016841F08071016001688901FCD5416888
:102FF000890889004160416841F0020141604168EF
:1030000001F00C010829FAD14FF000601649086060
:1030100002B070471548016801F00C0108290FD172
:1030200001680268C1F38341891CD20358BF104A6A
:1030300004D5026892034CBF0D4A0E4A514300E08A
:103040000C490D4A11600068C0F303108018007924
:10305000C140116070470000001002400000FFF8FE
:10306000FFFFF6FE0020024008ED00E004100240E1
:1030700000093D0000127A007400002019E050F8A9
:10308000041BCB0744BFA9F101035918121F0023E9
:10309000042A41F8043BF9D25FEA827C0B4604D54E
:1030A0004FF0000CA1F800C09B1CD10744BF0021C9
:1030B000197050F8042B002AE1D1704730B501682F
:1030C00042688468091801EB5203D20748BF4C4498
:1030D0000C30994200D130BD11F9012B11F8015B80
:1030E000002A04F8015B02D5521CF9D1F1E7521E07
:1030F000F4D5EEE710B5074979441831064C7C4405
:10310000163404E00A68081D511888470146A14298
:10311000F8D110BD080000002400000061FFFFFF8F
:1031200048060000180500200000000091FFFFFF86
:1031300054010000B0000000000000207047FEE7CE
:10314000FEE7FEE7FEE770477047704702480168F8
:10315000491C0160704700005C0B002000F00BF878
:10316000002801D0FFF7C6FF0020C046C046FFF789
:10317000DBFD00F002F80120704700F001B800000C
:103180000746384600F002F8FBE7000080B5C0466D
:10319000C046024A11001820ABBEFBE72600020021
:1031A00001488047014800473D2F0008B131000821
:1031B000C046C046C046C046FFF7D0FFFFF7BEBFBF
:1031C000FFF7BDBFFFF7BCBFFFF7BBBFFFF7BABF3D
:1031D000FFF7B9BFFFF7B8BFFFF7B7BFFFF7B6BF3D
:1031E000FFF7FEBFFFF7FEBFFFF7FEBFFFF7FEBF13
:1031F000FFF7FEBFFFF7FEBFFFF7FEBFFFF7FEBF03
:10320000FFF7FEBFFFF7FEBFFFF7FEBFFFF7FEBFF2
:10321000FFF7FEBFFFF7FEBFFFF7FEBFFFF7FEBFE2
:10322000FFF7FEBFFFF7FEBFFFF7FEBFFFF7FEBFD2
:10323000FFF7FEBFFFF7FEBFFFF7FEBFFFF7FEBFC2
:10324000FEF760BEFFF7FEBFFFF7FEBFFFF7FEBF52
:10325000FFF7FEBFFFF7FEBFFFF7FEBFFFF7FEBFA2
:10326000FFF7FEBFFFF7FEBFFFF7FEBFFFF7FEBF92
:10327000FFF7FEBFFFF7FEBFFFF7FEBFFFF7FEBF82
:10328000FFF7FEBF19000001020304050607080945
:103290000A0B0C0D0E0F101112131415161718D25D
:1032A00000071805002018080020FC0001D007F2D4
:1032B00000130102030401020304060708090204C3
:1032C000060800A24A04F8000701020304060708E2
:0C32D00009810001000CFC000001F80066
:04000005080031B10D
:00000001FF
